{
  "contractName": "ProxySecurityToken",
  "abi": [
    {
      "inputs": [
        {
          "internalType": "uint256",
          "name": "_pricePerToken",
          "type": "uint256"
        },
        {
          "internalType": "address",
          "name": "_securityTokenImmutableAddress",
          "type": "address"
        }
      ],
      "stateMutability": "nonpayable",
      "type": "constructor"
    },
    {
      "inputs": [
        {
          "internalType": "address",
          "name": "account",
          "type": "address"
        },
        {
          "internalType": "uint256",
          "name": "accountBalance",
          "type": "uint256"
        },
        {
          "internalType": "uint256",
          "name": "amount",
          "type": "uint256"
        }
      ],
      "name": "BurnAmountExceedsBalance",
      "type": "error"
    },
    {
      "inputs": [
        {
          "internalType": "address",
          "name": "account",
          "type": "address"
        }
      ],
      "name": "BurnFromZeroAddress",
      "type": "error"
    },
    {
      "inputs": [
        {
          "internalType": "address",
          "name": "account",
          "type": "address"
        },
        {
          "internalType": "uint256",
          "name": "previousBalance",
          "type": "uint256"
        },
        {
          "internalType": "uint256",
          "name": "currentBalance",
          "type": "uint256"
        },
        {
          "internalType": "uint256",
          "name": "amount",
          "type": "uint256"
        }
      ],
      "name": "MintDoesNotWork",
      "type": "error"
    },
    {
      "inputs": [
        {
          "internalType": "address",
          "name": "account",
          "type": "address"
        }
      ],
      "name": "MintFromZeroAddress",
      "type": "error"
    },
    {
      "inputs": [
        {
          "internalType": "address",
          "name": "sender",
          "type": "address"
        }
      ],
      "name": "NotReader",
      "type": "error"
    },
    {
      "inputs": [
        {
          "internalType": "address",
          "name": "sender",
          "type": "address"
        },
        {
          "internalType": "bytes32",
          "name": "role",
          "type": "bytes32"
        }
      ],
      "name": "NotTheOwner",
      "type": "error"
    },
    {
      "inputs": [
        {
          "internalType": "uint256",
          "name": "fromBalance",
          "type": "uint256"
        },
        {
          "internalType": "address",
          "name": "from",
          "type": "address"
        },
        {
          "internalType": "uint256",
          "name": "amount",
          "type": "uint256"
        }
      ],
      "name": "TransferAmountExceedsBalance",
      "type": "error"
    },
    {
      "inputs": [
        {
          "internalType": "address",
          "name": "from",
          "type": "address"
        }
      ],
      "name": "TransferFromZeroAddress",
      "type": "error"
    },
    {
      "inputs": [
        {
          "internalType": "address",
          "name": "to",
          "type": "address"
        }
      ],
      "name": "TransferToZeroAddress",
      "type": "error"
    },
    {
      "anonymous": false,
      "inputs": [
        {
          "indexed": true,
          "internalType": "address",
          "name": "previousOwner",
          "type": "address"
        },
        {
          "indexed": true,
          "internalType": "address",
          "name": "newOwner",
          "type": "address"
        }
      ],
      "name": "OwnershipTransferred",
      "type": "event"
    },
    {
      "anonymous": false,
      "inputs": [
        {
          "indexed": true,
          "internalType": "address",
          "name": "sender",
          "type": "address"
        },
        {
          "indexed": true,
          "internalType": "uint256",
          "name": "paused",
          "type": "uint256"
        }
      ],
      "name": "Paused",
      "type": "event"
    },
    {
      "anonymous": false,
      "inputs": [
        {
          "indexed": true,
          "internalType": "address",
          "name": "_reader",
          "type": "address"
        }
      ],
      "name": "ReaderAdded",
      "type": "event"
    },
    {
      "anonymous": false,
      "inputs": [
        {
          "indexed": true,
          "internalType": "address",
          "name": "_reader",
          "type": "address"
        }
      ],
      "name": "ReaderRemoved",
      "type": "event"
    },
    {
      "anonymous": false,
      "inputs": [
        {
          "indexed": false,
          "internalType": "string",
          "name": "eventType",
          "type": "string"
        },
        {
          "indexed": true,
          "internalType": "address",
          "name": "from",
          "type": "address"
        },
        {
          "indexed": true,
          "internalType": "address",
          "name": "to",
          "type": "address"
        },
        {
          "indexed": false,
          "internalType": "uint256",
          "name": "value",
          "type": "uint256"
        }
      ],
      "name": "Transfer",
      "type": "event"
    },
    {
      "anonymous": false,
      "inputs": [
        {
          "indexed": true,
          "internalType": "address",
          "name": "oldAccount",
          "type": "address"
        },
        {
          "indexed": true,
          "internalType": "address",
          "name": "newAccount",
          "type": "address"
        }
      ],
      "name": "TransferOwnership",
      "type": "event"
    },
    {
      "inputs": [],
      "name": "_now",
      "outputs": [
        {
          "internalType": "uint256",
          "name": "",
          "type": "uint256"
        }
      ],
      "stateMutability": "view",
      "type": "function"
    },
    {
      "inputs": [
        {
          "internalType": "address",
          "name": "_reader",
          "type": "address"
        }
      ],
      "name": "addReader",
      "outputs": [],
      "stateMutability": "nonpayable",
      "type": "function"
    },
    {
      "inputs": [
        {
          "internalType": "string",
          "name": "str1",
          "type": "string"
        },
        {
          "internalType": "string",
          "name": "str2",
          "type": "string"
        }
      ],
      "name": "compare",
      "outputs": [
        {
          "internalType": "bool",
          "name": "",
          "type": "bool"
        }
      ],
      "stateMutability": "pure",
      "type": "function"
    },
    {
      "inputs": [
        {
          "internalType": "address",
          "name": "_reader",
          "type": "address"
        }
      ],
      "name": "isReader",
      "outputs": [
        {
          "internalType": "bool",
          "name": "",
          "type": "bool"
        }
      ],
      "stateMutability": "view",
      "type": "function"
    },
    {
      "inputs": [
        {
          "internalType": "address",
          "name": "_reader",
          "type": "address"
        }
      ],
      "name": "removeReader",
      "outputs": [],
      "stateMutability": "nonpayable",
      "type": "function"
    },
    {
      "inputs": [],
      "name": "renounceOwnership",
      "outputs": [],
      "stateMutability": "nonpayable",
      "type": "function"
    },
    {
      "inputs": [],
      "name": "version",
      "outputs": [
        {
          "internalType": "string",
          "name": "",
          "type": "string"
        }
      ],
      "stateMutability": "pure",
      "type": "function"
    },
    {
      "inputs": [],
      "name": "owner",
      "outputs": [
        {
          "internalType": "address",
          "name": "",
          "type": "address"
        }
      ],
      "stateMutability": "view",
      "type": "function"
    },
    {
      "inputs": [
        {
          "internalType": "address",
          "name": "account",
          "type": "address"
        }
      ],
      "name": "transferOwnership",
      "outputs": [],
      "stateMutability": "nonpayable",
      "type": "function"
    },
    {
      "inputs": [
        {
          "internalType": "address",
          "name": "to",
          "type": "address"
        },
        {
          "internalType": "uint256",
          "name": "amount",
          "type": "uint256"
        }
      ],
      "name": "mint",
      "outputs": [
        {
          "internalType": "bool",
          "name": "",
          "type": "bool"
        }
      ],
      "stateMutability": "payable",
      "type": "function"
    },
    {
      "inputs": [
        {
          "internalType": "address",
          "name": "account",
          "type": "address"
        },
        {
          "internalType": "uint256",
          "name": "amount",
          "type": "uint256"
        }
      ],
      "name": "burn",
      "outputs": [
        {
          "internalType": "bool",
          "name": "",
          "type": "bool"
        }
      ],
      "stateMutability": "nonpayable",
      "type": "function"
    },
    {
      "inputs": [
        {
          "internalType": "uint256",
          "name": "amount",
          "type": "uint256"
        }
      ],
      "name": "refoundable",
      "outputs": [
        {
          "internalType": "uint256",
          "name": "",
          "type": "uint256"
        }
      ],
      "stateMutability": "view",
      "type": "function"
    },
    {
      "inputs": [
        {
          "internalType": "address",
          "name": "to",
          "type": "address"
        },
        {
          "internalType": "uint256",
          "name": "amount",
          "type": "uint256"
        }
      ],
      "name": "transfer",
      "outputs": [
        {
          "internalType": "bool",
          "name": "",
          "type": "bool"
        }
      ],
      "stateMutability": "nonpayable",
      "type": "function"
    },
    {
      "inputs": [
        {
          "internalType": "address",
          "name": "from",
          "type": "address"
        },
        {
          "internalType": "address",
          "name": "to",
          "type": "address"
        },
        {
          "internalType": "uint256",
          "name": "amount",
          "type": "uint256"
        }
      ],
      "name": "transferFrom",
      "outputs": [
        {
          "internalType": "bool",
          "name": "",
          "type": "bool"
        }
      ],
      "stateMutability": "nonpayable",
      "type": "function"
    },
    {
      "inputs": [
        {
          "internalType": "address",
          "name": "operator",
          "type": "address"
        },
        {
          "internalType": "address",
          "name": "from",
          "type": "address"
        },
        {
          "internalType": "address",
          "name": "to",
          "type": "address"
        },
        {
          "internalType": "uint256",
          "name": "value",
          "type": "uint256"
        }
      ],
      "name": "canTransfer",
      "outputs": [
        {
          "internalType": "bytes1",
          "name": "",
          "type": "bytes1"
        }
      ],
      "stateMutability": "view",
      "type": "function"
    },
    {
      "inputs": [
        {
          "internalType": "string",
          "name": "_messageRequest",
          "type": "string"
        },
        {
          "internalType": "uint256",
          "name": "_amountRequest",
          "type": "uint256"
        }
      ],
      "name": "setRequest",
      "outputs": [],
      "stateMutability": "nonpayable",
      "type": "function"
    },
    {
      "inputs": [],
      "name": "getRequest",
      "outputs": [
        {
          "internalType": "string",
          "name": "",
          "type": "string"
        },
        {
          "internalType": "uint256",
          "name": "",
          "type": "uint256"
        },
        {
          "internalType": "uint256",
          "name": "",
          "type": "uint256"
        },
        {
          "internalType": "uint256",
          "name": "",
          "type": "uint256"
        }
      ],
      "stateMutability": "view",
      "type": "function"
    },
    {
      "inputs": [
        {
          "internalType": "bool",
          "name": "vote",
          "type": "bool"
        },
        {
          "internalType": "uint256",
          "name": "amount",
          "type": "uint256"
        }
      ],
      "name": "voteToRequest",
      "outputs": [],
      "stateMutability": "nonpayable",
      "type": "function"
    },
    {
      "inputs": [
        {
          "internalType": "uint256",
          "name": "amount",
          "type": "uint256"
        },
        {
          "internalType": "address",
          "name": "receiver",
          "type": "address"
        }
      ],
      "name": "withdraw",
      "outputs": [],
      "stateMutability": "nonpayable",
      "type": "function"
    },
    {
      "inputs": [
        {
          "internalType": "uint256",
          "name": "amount",
          "type": "uint256"
        }
      ],
      "name": "withdrawable",
      "outputs": [
        {
          "internalType": "uint256",
          "name": "weiWithdrawable",
          "type": "uint256"
        }
      ],
      "stateMutability": "view",
      "type": "function"
    }
  ],
  "bytecode": "0x60c060405234801562000010575f80fd5b50604051620021b0380380620021b08339810160408190526200003391620001ac565b816200003f3362000141565b608052600780546001600160a01b03191633179055426003556001600160a01b03811660a081905215801590620000e8575060a0516001600160a01b0316638da5cb5b6040518163ffffffff1660e01b8152600401602060405180830381865afa158015620000b0573d5f803e3d5ffd5b505050506040513d601f19601f82011682018060405250810190620000d69190620001d9565b6007546001600160a01b039081169116145b620001395760405162461bcd60e51b815260206004820152601b60248201527f546f6b656e20636f6e7472616374206973206e6f742076616c69640000000000604482015260640160405180910390fd5b5050620001fc565b5f80546001600160a01b038381166001600160a01b0319831681178455604051919092169283917f8be0079c531659141344cd1fd0a4f28419497f9722a3daafe3b4186f6b6457e09190a35050565b80516001600160a01b0381168114620001a7575f80fd5b919050565b5f8060408385031215620001be575f80fd5b82519150620001d06020840162000190565b90509250929050565b5f60208284031215620001ea575f80fd5b620001f58262000190565b9392505050565b60805160a051611f30620002805f395f81816103a7015281816104a601528181610599015281816106d4015281816108050152818161096d015281816109e701528181610a8201528181610b0d01528181610b4c01528181610e1e01528181610eba0152818161102a0152818161110e01526113a001525f6108e30152611f305ff3fe6080604052600436106100ed575f3560e01c8062f714ce146100f157806323b872dd1461011257806338d65d11146101465780633a96fdd71461016557806340c10f191461018457806354fd4d5014610197578063586abfbd146101ca57806364e07f1f146101f757806369a7ddf7146102165780636d62a4fe14610235578063715018a61461026d5780638da5cb5b146102815780639dc29fac146102a2578063a9059cbb146102c1578063afd8b1d1146102e0578063b1ffa3d1146102ff578063b3bb8cd41461031e578063c2bb515f14610330578063f11988e014610354578063f2fde38b14610373575b5f80fd5b3480156100fc575f80fd5b5061011061010b366004611858565b610392565b005b34801561011d575f80fd5b5061013161012c366004611882565b61055d565b60405190151581526020015b60405180910390f35b348015610151575f80fd5b506101106101603660046118bb565b61061d565b348015610170575f80fd5b5061013161017f366004611970565b610666565b6101316101923660046119cf565b6106cf565b3480156101a2575f80fd5b506040805180820182526005815264302e302e3160d81b6020820152905161013d9190611a44565b3480156101d5575f80fd5b506101e96101e4366004611a56565b610a73565b60405190815260200161013d565b348015610202575f80fd5b50610110610211366004611a7d565b610b3b565b348015610221575f80fd5b506101316102303660046118bb565b610e0e565b348015610240575f80fd5b5061025461024f366004611a99565b610e1a565b6040516001600160f81b0319909116815260200161013d565b348015610278575f80fd5b50610110610fcb565b34801561028c575f80fd5b50610295610fde565b60405161013d9190611ae1565b3480156102ad575f80fd5b506101316102bc3660046119cf565b610fed565b3480156102cc575f80fd5b506101316102db3660046119cf565b6110da565b3480156102eb575f80fd5b506101106102fa3660046118bb565b611199565b34801561030a575f80fd5b50610110610319366004611af5565b6111e2565b348015610329575f80fd5b50426101e9565b34801561033b575f80fd5b506103446112f4565b60405161013d9493929190611b36565b34801561035f575f80fd5b506101e961036e366004611a56565b61139c565b34801561037e575f80fd5b5061011061038d3660046118bb565b611592565b61039a6115f5565b6103a38261139c565b505f7f00000000000000000000000000000000000000000000000000000000000000006001600160a01b03166345e2984a6040518163ffffffff1660e01b815260040160e060405180830381865afa158015610401573d5f803e3d5ffd5b505050506040513d601f19601f820116820180604052508101906104259190611b64565b905080606001515f1461046c576104568361045083606001516201518061165490919063ffffffff16565b90611654565b60035f8282546104669190611c14565b90915550505b6040810151151560010361047f575f6004555b604051627b8a6760e11b8152600481018490526001600160a01b0383811660248301525f917f00000000000000000000000000000000000000000000000000000000000000009091169062f714ce906044016020604051808303815f875af11580156104ed573d5f803e3d5ffd5b505050506040513d601f19601f820116820180604052508101906105119190611c27565b9050806105575760405162461bcd60e51b815260206004820152600f60248201526e15da5d1a191c985dc819985a5b1959608a1b60448201526064015b60405180910390fd5b50505050565b5f605160f81b61056f33868686610e1a565b6001600160f81b03191614610582575f80fd5b6040516323b872dd60e01b81526001600160a01b037f000000000000000000000000000000000000000000000000000000000000000016906323b872dd906105d290879087908790600401611c42565b6020604051808303815f875af11580156105ee573d5f803e3d5ffd5b505050506040513d601f19601f820116820180604052508101906106129190611c27565b506001949350505050565b6106256115f5565b610630600182611666565b6040516001600160a01b038216907fe933431644458f1217f9e93d3e000e03c9bbbe55761046d0985c2e4d157bcbaa905f90a250565b5f815183511461067757505f6106c9565b816040516020016106889190611c66565b60405160208183030381529060405280519060200120836040516020016106af9190611c66565b604051602081830303815290604052805190602001201490505b92915050565b5f815f7f00000000000000000000000000000000000000000000000000000000000000006001600160a01b03166345e2984a6040518163ffffffff1660e01b815260040160e060405180830381865afa15801561072e573d5f803e3d5ffd5b505050506040513d601f19601f820116820180604052508101906107529190611b64565b905080608001516107604290565b10156107a85760405162461bcd60e51b8152602060048201526017602482015276119d5b991c985a5cda5b99c81b9bdd081cdd185c9d1959604a1b604482015260640161054e565b60a0810151421115806107bd575060a0810151155b6107fd5760405162461bcd60e51b8152602060048201526011602482015270119d5b991c985a5cda5b99c8195b991959607a1b604482015260640161054e565b8060c00151827f00000000000000000000000000000000000000000000000000000000000000006001600160a01b03166318160ddd6040518163ffffffff1660e01b8152600401602060405180830381865afa15801561085f573d5f803e3d5ffd5b505050506040513d601f19601f820116820180604052508101906108839190611c81565b61088d9190611c14565b11158061089c575060c0810151155b6108dd5760405162461bcd60e51b815260206004820152601260248201527113585e081cdd5c1c1b1e481c995858da195960721b604482015260640161054e565b610907847f0000000000000000000000000000000000000000000000000000000000000000611c98565b3410156109475760405162461bcd60e51b815260206004820152600e60248201526d09cdee840cadcdeeaced040cae8d60931b604482015260640161054e565b6040516340c10f1960e01b81526001600160a01b038681166004830152602482018690527f000000000000000000000000000000000000000000000000000000000000000016906340c10f19906044016020604051808303815f875af11580156109b3573d5f803e3d5ffd5b505050506040513d601f19601f820116820180604052508101906109d79190611c27565b506040516341bb26d360e01b81527f00000000000000000000000000000000000000000000000000000000000000006001600160a01b0316906341bb26d3903490610a26903390600401611ae1565b60206040518083038185885af1158015610a42573d5f803e3d5ffd5b50505050506040513d601f19601f82011682018060405250810190610a679190611c27565b50600195945050505050565b5f6106c982610450610b0060647f00000000000000000000000000000000000000000000000000000000000000006001600160a01b03166318160ddd6040518163ffffffff1660e01b8152600401602060405180830381865afa158015610adc573d5f803e3d5ffd5b505050506040513d601f19601f820116820180604052508101906104509190611c81565b610b356001600160a01b037f000000000000000000000000000000000000000000000000000000000000000016316064611654565b906116e7565b6040516370a0823160e01b815281907f00000000000000000000000000000000000000000000000000000000000000006001600160a01b0316906370a0823190610b89903390600401611ae1565b602060405180830381865afa158015610ba4573d5f803e3d5ffd5b505050506040513d601f19601f82011682018060405250810190610bc89190611c81565b1015610c295760405162461bcd60e51b815260206004820152602a60248201527f42616c616e6365206f662073656e646572206973206c6f776572207468616e206044820152691d1a1948185b5bdd5b9d60b21b606482015260840161054e565b335f908152600e602052604090208054610d519190610c4790611caf565b80601f0160208091040260200160405190810160405280929190818152602001828054610c7390611caf565b8015610cbe5780601f10610c9557610100808354040283529160200191610cbe565b820191905f5260205f20905b815481529060010190602001808311610ca157829003601f168201915b505050505060108054610cd090611caf565b80601f0160208091040260200160405190810160405280929190818152602001828054610cfc90611caf565b8015610d475780601f10610d1e57610100808354040283529160200191610d47565b820191905f5260205f20905b815481529060010190602001808311610d2a57829003601f168201915b5050505050610666565b15610daf5760405162461bcd60e51b815260206004820152602860248201527f53656e6465722068617320616c726561647920766f74656420746f2074686973604482015267081c995c5d595cdd60c21b606482015260840161054e565b335f908152600e60205260409020610dc8601082611d43565b50811515600103610dea578060055f828254610de49190611c14565b90915550505b8115155f03610e0a578060065f828254610e049190611c14565b90915550505b5050565b5f6106c96001836116f2565b5f817f00000000000000000000000000000000000000000000000000000000000000006001600160a01b03166370a08231866040518263ffffffff1660e01b8152600401610e689190611ae1565b602060405180830381865afa158015610e83573d5f803e3d5ffd5b505050506040513d601f19601f82011682018060405250810190610ea79190611c81565b1015610eb85750602960f91b610fc3565b7f00000000000000000000000000000000000000000000000000000000000000006001600160a01b031663b187bd266040518163ffffffff1660e01b8152600401602060405180830381865afa158015610f14573d5f803e3d5ffd5b505050506040513d601f19601f82011682018060405250810190610f389190611c81565b421015610f4a5750601560fa1b610fc3565b6001600160a01b038416610f635750602b60f91b610fc3565b6001600160a01b038316610f7c5750605760f81b610fc3565b6007546001600160a01b03868116911614801590610fac5750846001600160a01b0316846001600160a01b031614155b15610fbc5750600b60fb1b610fc3565b50605160f81b5b949350505050565b610fd36115f5565b610fdc5f611773565b565b6007546001600160a01b031690565b5f80610ff883610a73565b604051637a94c56560e11b81526001600160a01b03868116600483015260248201869052604482018390529192505f917f0000000000000000000000000000000000000000000000000000000000000000169063f5298aca906064016020604051808303815f875af1158015611070573d5f803e3d5ffd5b505050506040513d601f19601f820116820180604052508101906110949190611c27565b9050806106125760405162461bcd60e51b81526020600482015260146024820152732330b4b632b2103a379039b2b7321022ba3432b960611b604482015260640161054e565b5f605160f81b6110ec33338686610e1a565b6001600160f81b031916146110ff575f80fd5b6040516323b872dd60e01b81527f00000000000000000000000000000000000000000000000000000000000000006001600160a01b0316906323b872dd9061114f90339087908790600401611c42565b6020604051808303815f875af115801561116b573d5f803e3d5ffd5b505050506040513d601f19601f8201168201806040525081019061118f9190611c27565b5060019392505050565b6111a16115f5565b6111ac6001826117c2565b6040516001600160a01b038216907fb7724d890d2888af5a3fc456edb667e2c82c4441449ebcac301c618759e4f86d905f90a250565b6111ea6115f5565b61127c601080546111fa90611caf565b80601f016020809104026020016040519081016040528092919081815260200182805461122690611caf565b80156112715780601f1061124857610100808354040283529160200191611271565b820191905f5260205f20905b81548152906001019060200180831161125457829003601f168201915b505050505083610666565b156112d85760405162461bcd60e51b815260206004820152602660248201527f526571756573742063616e277420626520657175616c20746f206c6173742072604482015265195c5d595cdd60d21b606482015260840161054e565b60106112e48382611e18565b50600455505f6005819055600655565b60605f805f601060045460055460065483805461131090611caf565b80601f016020809104026020016040519081016040528092919081815260200182805461133c90611caf565b80156113875780601f1061135e57610100808354040283529160200191611387565b820191905f5260205f20905b81548152906001019060200180831161136a57829003601f168201915b50505050509350935093509350935090919293565b5f807f00000000000000000000000000000000000000000000000000000000000000006001600160a01b03166345e2984a6040518163ffffffff1660e01b815260040160e060405180830381865afa1580156113fa573d5f803e3d5ffd5b505050506040513d601f19601f8201168201806040525081019061141e9190611b64565b905080606001515f146114585761145561144882606001516201518061165490919063ffffffff16565b600354610b359042611ec8565b91505b60408101511580611479575060065460055411801561147957506004548311155b6114b85760405162461bcd60e51b815260206004820152601060248201526f139bc81d9bdd19481858d8d95c1d195960821b604482015260640161054e565b82821015806114c957506060810151155b6115145760405162461bcd60e51b815260206004820152601c60248201527b4e6f7420656e6f7567682066756e647320746f20776974686472617760201b604482015260640161054e565b426115338461045084606001516201518061165490919063ffffffff16565b6003546115409190611c14565b11158061154f57506060810151155b61158c5760405162461bcd60e51b815260206004820152600e60248201526d151a5b59481a5b98dbdc9c9958dd60921b604482015260640161054e565b50919050565b61159a6115f5565b6007546040516001600160a01b038084169216907f5c486528ec3e3f0ea91181cff8116f02bfa350e03b8b6f12e00765adbb5af85c905f90a3600780546001600160a01b0319166001600160a01b0392909216919091179055565b336115fe610fde565b6001600160a01b031614610fdc5760405162461bcd60e51b815260206004820181905260248201527f4f776e61626c653a2063616c6c6572206973206e6f7420746865206f776e6572604482015260640161054e565b5f61165f8284611c98565b9392505050565b61167082826116f2565b6116c65760405162461bcd60e51b815260206004820152602160248201527f526f6c65733a206163636f756e7420646f6573206e6f74206861766520726f6c6044820152606560f81b606482015260840161054e565b6001600160a01b03165f90815260209190915260409020805460ff19169055565b5f61165f8284611edb565b5f6001600160a01b0382166117545760405162461bcd60e51b815260206004820152602260248201527f526f6c65733a206163636f756e7420697320746865207a65726f206164647265604482015261737360f01b606482015260840161054e565b506001600160a01b03165f908152602091909152604090205460ff1690565b5f80546001600160a01b038381166001600160a01b0319831681178455604051919092169283917f8be0079c531659141344cd1fd0a4f28419497f9722a3daafe3b4186f6b6457e09190a35050565b6117cc82826116f2565b156118195760405162461bcd60e51b815260206004820152601f60248201527f526f6c65733a206163636f756e7420616c72656164792068617320726f6c6500604482015260640161054e565b6001600160a01b03165f90815260209190915260409020805460ff19166001179055565b80356001600160a01b0381168114611853575f80fd5b919050565b5f8060408385031215611869575f80fd5b823591506118796020840161183d565b90509250929050565b5f805f60608486031215611894575f80fd5b61189d8461183d565b92506118ab6020850161183d565b9150604084013590509250925092565b5f602082840312156118cb575f80fd5b61165f8261183d565b634e487b7160e01b5f52604160045260245ffd5b5f82601f8301126118f7575f80fd5b81356001600160401b0380821115611911576119116118d4565b604051601f8301601f19908116603f01168101908282118183101715611939576119396118d4565b81604052838152866020858801011115611951575f80fd5b836020870160208301375f602085830101528094505050505092915050565b5f8060408385031215611981575f80fd5b82356001600160401b0380821115611997575f80fd5b6119a3868387016118e8565b935060208501359150808211156119b8575f80fd5b506119c5858286016118e8565b9150509250929050565b5f80604083850312156119e0575f80fd5b6119e98361183d565b946020939093013593505050565b5f5b83811015611a115781810151838201526020016119f9565b50505f910152565b5f8151808452611a308160208601602086016119f7565b601f01601f19169290920160200192915050565b602081525f61165f6020830184611a19565b5f60208284031215611a66575f80fd5b5035919050565b8015158114611a7a575f80fd5b50565b5f8060408385031215611a8e575f80fd5b82356119e981611a6d565b5f805f8060808587031215611aac575f80fd5b611ab58561183d565b9350611ac36020860161183d565b9250611ad16040860161183d565b9396929550929360600135925050565b6001600160a01b0391909116815260200190565b5f8060408385031215611b06575f80fd5b82356001600160401b03811115611b1b575f80fd5b611b27858286016118e8565b95602094909401359450505050565b608081525f611b486080830187611a19565b6020830195909552506040810192909252606090910152919050565b5f60e08284031215611b74575f80fd5b60405160e081016001600160401b0381118282101715611b9657611b966118d4565b6040528251611ba481611a6d565b81526020830151611bb481611a6d565b60208201526040830151611bc781611a6d565b80604083015250606083015160608201526080830151608082015260a083015160a082015260c083015160c08201528091505092915050565b634e487b7160e01b5f52601160045260245ffd5b808201808211156106c9576106c9611c00565b5f60208284031215611c37575f80fd5b815161165f81611a6d565b6001600160a01b039384168152919092166020820152604081019190915260600190565b5f8251611c778184602087016119f7565b9190910192915050565b5f60208284031215611c91575f80fd5b5051919050565b80820281158282048414176106c9576106c9611c00565b600181811c90821680611cc357607f821691505b60208210810361158c57634e487b7160e01b5f52602260045260245ffd5b601f821115611d2a575f81815260208120601f850160051c81016020861015611d075750805b601f850160051c820191505b81811015611d2657828155600101611d13565b5050505b505050565b5f19600383901b1c191660019190911b1790565b818103611d4e575050565b611d588254611caf565b6001600160401b03811115611d6f57611d6f6118d4565b611d8381611d7d8454611caf565b84611ce1565b5f601f821160018114611daf575f8315611d9d5750848201545b611da78482611d2f565b855550611e11565b5f85815260209020601f198416905f86815260209020845b83811015611de75782860154825560019586019590910190602001611dc7565b5085831015611e0457818501545f19600388901b60f8161c191681555b50505060018360011b0184555b5050505050565b81516001600160401b03811115611e3157611e316118d4565b611e3f81611d7d8454611caf565b602080601f831160018114611e6d575f8415611e5b5750858301515b611e658582611d2f565b865550611d26565b5f85815260208120601f198616915b82811015611e9b57888601518255948401946001909101908401611e7c565b5085821015611eb857878501515f19600388901b60f8161c191681555b5050505050600190811b01905550565b818103818111156106c9576106c9611c00565b5f82611ef557634e487b7160e01b5f52601260045260245ffd5b50049056fea2646970667358221220b5dce697b5274ac640327f3574f9006e4785691411375dbd965e4202f409da3164736f6c63430008150033",
  "immutableReferences": {
    "1994": [
      {
        "length": 32,
        "start": 2275
      }
    ],
    "2505": [
      {
        "length": 32,
        "start": 935
      },
      {
        "length": 32,
        "start": 1190
      },
      {
        "length": 32,
        "start": 1433
      },
      {
        "length": 32,
        "start": 1748
      },
      {
        "length": 32,
        "start": 2053
      },
      {
        "length": 32,
        "start": 2413
      },
      {
        "length": 32,
        "start": 2535
      },
      {
        "length": 32,
        "start": 2690
      },
      {
        "length": 32,
        "start": 2829
      },
      {
        "length": 32,
        "start": 2892
      },
      {
        "length": 32,
        "start": 3614
      },
      {
        "length": 32,
        "start": 3770
      },
      {
        "length": 32,
        "start": 4138
      },
      {
        "length": 32,
        "start": 4366
      },
      {
        "length": 32,
        "start": 5024
      }
    ]
  },
  "source": "// SPDX-License-Identifier: MIT\n\npragma solidity ^0.8.0;\n\n\nimport \"../immutable/StorageToken.sol\";\nimport \"../library/TokenLibrary.sol\";\nimport \"../interfaces/ISecurityTokenImmutable.sol\";\nimport \"../interfaces/IProxySecurityToken.sol\";\nimport \"../roles/ReaderRole.sol\";\nimport \"@openzeppelin/contracts/access/Ownable.sol\";\nimport \"@openzeppelin/contracts/token/ERC20/ERC20.sol\";\nimport \"@openzeppelin/contracts/utils/math/SafeMath.sol\";\n\ncontract ProxySecurityToken is ReaderRole, StorageToken, IProxySecurityToken {\n    using SafeMath for uint;\n    ISecurityTokenImmutable internal immutable TokenContract;\n\n    /**\n     */\n    constructor(uint256 _pricePerToken, address _securityTokenImmutableAddress) StorageToken(_pricePerToken) {\n        OWNER = _msgSender();\n        lastWithdraw = _now();\n        TokenContract = ISecurityTokenImmutable(_securityTokenImmutableAddress);\n        require(address(TokenContract) != address(0) && OWNER == TokenContract.owner(), \"Token contract is not valid\");\n    }\n\n    /// @dev Modifier to check if fundraising is open and max supply not reached.\n    modifier fundraisable(uint256 amount) {\n        TokenLibrary.Rules memory _rules = TokenContract.getRules();\n        require(_now() >= _rules.startFundraising, \"Fundraising not started\");\n        require(_now() <= _rules.endFundraising || _rules.endFundraising == 0, \"Fundraising ended\");\n        require(TokenContract.totalSupply() + amount <= _rules.maxSupply || _rules.maxSupply == 0, \"Max supply reached\");\n        _;\n    }\n\n    /**\n     * @notice Returns the version of the token contract\n     * @return TOKEN_VERSION {string} version of the smart contract\n     */\n    function version() external pure returns (string memory) {\n        return TOKEN_VERSION;\n    }\n\n    /**\n     * @notice Returns the address wallet of the smart contract owner.\n     * @return owner {address} wallet addres from owner\n     */\n    function owner() public view override(Ownable, IProxySecurityToken) returns (address) {\n        return OWNER;\n    }\n\n    /**\n     * @notice Transfer ownership of the smart contract\n     * @param account {address} address of the new owner\n     */\n    function transferOwnership(address account) public virtual override(Ownable, IProxySecurityToken) onlyOwner {\n        emit TransferOwnership(OWNER, account);\n        OWNER = account;\n    }\n\n    /**\n     * @notice Mint and send `amount` tokens to `to`\n     *\n     * Returns a boolean value indicating whether the operation succeeded.\n     *\n     * Emits a {Transfer} event.\n     * @param to {address} wallet to send the token\n     * @param amount {uint256} amount to mint\n     * @return result {boolean} success or failure\n     */\n    function mint(address to, uint256 amount) external payable fundraisable(amount) returns (bool) {\n        require(msg.value >= pricePerToken * amount, \"Not enough eth\");\n        TokenContract.mint(to, amount);\n        TokenContract.handlePayment{value: msg.value}(_msgSender());\n        return true;\n    }\n\n    /**\n     * @notice Remove `amount` tokens from `account`\n     *\n     * Returns a boolean value indicating whether the operation succeeded.\n     *\n     * Emits a {Transfer} event.\n     * @param account {address} wallet to burn the token\n     * @param amount {uint256} amount to burn\n     */\n    function burn(address account, uint256 amount)\n        external\n        returns (bool)\n    {\n        uint256 _refoundable = refoundable(amount);\n\n        bool success = TokenContract.burn(account, amount, _refoundable);\n        require(success, \"Failed to send Ether\");\n\n        return true;\n    }\n\n    /**\n     * @notice Return amount of refoundable for amount of tokens burned\n     * @param amount {uint256} amout of tokens burn\n     * @return wei {uint256} amount of wei refoundable\n     */\n    function refoundable(uint256 amount) public view returns(uint256){\n        return (address(TokenContract).balance.mul(100).div(TokenContract.totalSupply().mul(100))).mul(amount);\n    }\n\n    /**\n     * @dev Transfer and send `amount` tokens from `_msgSender()` to `to`\n     *\n     * Returns a boolean value indicating whether the operation succeeded.\n     *\n     * Emits a {Transfer} event.\n     * @param to {address} wallet to transfer the token\n     * @param amount {uint256[]} amount to transfer\n     */\n    function transfer(address to, uint256 amount) external returns (bool) {\n        require(canTransfer(_msgSender(), _msgSender(), to, amount) == (hex\"51\"));\n        TokenContract.transferFrom(_msgSender(), to, amount);\n        return true;\n    }\n\n    /**\n     * @dev Transfer and send `amount` tokens from `from` to `to`\n     *\n     * Returns a boolean value indicating whether the operation succeeded.\n     *\n     * Emits a {Transfer} event.\n     * @param from {address} wallet from transfer the token\n     * @param to {address} wallet to transfer the token\n     * @param amount {uint256[]} amount to transfer\n     */\n    function transferFrom(address from, address to, uint256 amount) external returns (bool) {\n        require(canTransfer(_msgSender(), from, to, amount) == (hex\"51\"));\n        TokenContract.transferFrom(from, to, amount);\n        return true;\n    }\n\n    /**\n     * @notice Interface of transfer method, return hex code error message\n     * @param operator {address} operator of transaction (sender)\n     * @param from {address} the origin of the token transfer\n     * @param to {address} the recipient of the token transfer\n     * @param value {uint256} the number of tokens transferred\n     * @return hex {bytes1} code error message\n     */\n    function canTransfer(\n        address operator,\n        address from,\n        address to,\n        uint256 value\n    ) public view returns (bytes1) {\n        if (TokenContract.balanceOf(from) < value) return(hex\"52\");\n        if(_now() < TokenContract.isPaused()) return(hex\"54\");\n        if(from == address(0)) return(hex\"56\");\n        if(to == address(0)) return(hex\"57\");\n        if(OWNER != operator && from != operator ) return(hex\"58\");\n        return (hex\"51\");\n    }\n\n    /**\n     * @notice Owner request (and request for withdraw if _rules.voteToWithdraw == true) with a comment and amount (Request can't be equal to last request and set request restart all votes)\n     * @param _messageRequest {string} message comment of request\n     * @param _amountRequest {uint256} amount of request\n     */\n    function setRequest(string memory _messageRequest, uint256 _amountRequest) external onlyOwner {\n        require(compare(messageRequest, _messageRequest) == false, \"Request can't be equal to last request\");\n        messageRequest = _messageRequest;\n        amountRequest = _amountRequest;\n        acceptedRequest = 0;\n        refusedRequest = 0;\n    }\n\n    /**\n     * @notice Get request to by owner\n     * @return request {string, uint256, uint256, uint256} (messageRequest, amountRequest, acceptedRequest, refusedRequest)\n     */\n    function getRequest() external view returns(string memory , uint256, uint256, uint256) {\n        return (\n            messageRequest,\n            amountRequest,\n            acceptedRequest,\n            refusedRequest\n        );\n    }\n\n    /**\n     * @notice Shareholder vote to the request of owner\n     * @param vote {boolean} accept (true) or reject (false) request\n     * @param amount {uint256} amount of vote request, need to be lower than balance of shareholder\n     */\n    function voteToRequest(bool vote, uint256 amount) external {\n        require(TokenContract.balanceOf(_msgSender()) >= amount, \"Balance of sender is lower than the amount\");\n        require(compare(hasVoted[_msgSender()], messageRequest) == false, \"Sender has already voted to this request\");\n        hasVoted[_msgSender()] = messageRequest;\n        if(vote == true) acceptedRequest += amount;\n        if(vote == false) refusedRequest += amount;\n    }\n\n    /**\n     * @notice Withdraw tokens amount of contract balance\n     * @param amount {uint256} the number of tokens transferred\n     * @param receiver {address} the recipient of the token transfer\n     */\n    function withdraw(uint256 amount, address receiver) external onlyOwner {\n        withdrawable(amount);\n        TokenLibrary.Rules memory _rules = TokenContract.getRules();\n        if(_rules.dayToWithdraw != 0)\n            lastWithdraw += oneDay.mul(_rules.dayToWithdraw).mul(amount);\n        if(_rules.voteToWithdraw == true) amountRequest = 0;\n        bool success = TokenContract.withdraw(amount, receiver);\n        require(success, \"Withdraw failed\");\n    }\n\n    /**\n     * @notice Check if amout is withdrawable\n     * @param amount {uint256} the number of tokens withdraw\n     * @return weiWithdrawable {uint256} the number of wei transferrable\n     */\n    function withdrawable(uint256 amount) public view returns(uint256 weiWithdrawable) {\n        TokenLibrary.Rules memory _rules = TokenContract.getRules();\n        if(_rules.dayToWithdraw != 0)\n            weiWithdrawable = ((_now() - lastWithdraw).div(oneDay.mul(_rules.dayToWithdraw)));\n        require(_rules.voteToWithdraw == false || (acceptedRequest> refusedRequest && amount <= amountRequest), \"No vote accepted\");\n        require(weiWithdrawable >= amount || _rules.dayToWithdraw == 0, \"Not enough funds to withdraw\");\n        require(lastWithdraw + oneDay.mul(_rules.dayToWithdraw).mul(amount) <= _now() || _rules.dayToWithdraw == 0, \"Time incorrect\");\n    }\n}",
  "sourcePath": "/home/solid-solution/Documents/block-us/block-us-contract/contracts/proxy/ProxySecurityToken.sol",
  "compiler": {
    "name": "solc",
    "version": "0.8.21+commit.d9974bed.Emscripten.clang"
  },
  "schemaVersion": "3.4.10",
  "updatedAt": "2023-09-19T15:20:09.582Z",
  "devdoc": {
    "kind": "dev",
    "methods": {
      "burn(address,uint256)": {
        "params": {
          "account": "{address} wallet to burn the token",
          "amount": "{uint256} amount to burn"
        }
      },
      "canTransfer(address,address,address,uint256)": {
        "params": {
          "from": "{address} the origin of the token transfer",
          "operator": "{address} operator of transaction (sender)",
          "to": "{address} the recipient of the token transfer",
          "value": "{uint256} the number of tokens transferred"
        },
        "returns": {
          "_0": "hex {bytes1} code error message"
        }
      },
      "getRequest()": {
        "returns": {
          "_0": "request {string, uint256, uint256, uint256} (messageRequest, amountRequest, acceptedRequest, refusedRequest)"
        }
      },
      "mint(address,uint256)": {
        "params": {
          "amount": "{uint256} amount to mint",
          "to": "{address} wallet to send the token"
        },
        "returns": {
          "_0": "result {boolean} success or failure"
        }
      },
      "owner()": {
        "returns": {
          "_0": "owner {address} wallet addres from owner"
        }
      },
      "refoundable(uint256)": {
        "params": {
          "amount": "{uint256} amout of tokens burn"
        },
        "returns": {
          "_0": "wei {uint256} amount of wei refoundable"
        }
      },
      "renounceOwnership()": {
        "details": "Leaves the contract without owner. It will not be possible to call `onlyOwner` functions anymore. Can only be called by the current owner. NOTE: Renouncing ownership will leave the contract without an owner, thereby removing any functionality that is only available to the owner."
      },
      "setRequest(string,uint256)": {
        "params": {
          "_amountRequest": "{uint256} amount of request",
          "_messageRequest": "{string} message comment of request"
        }
      },
      "transfer(address,uint256)": {
        "details": "Transfer and send `amount` tokens from `_msgSender()` to `to` Returns a boolean value indicating whether the operation succeeded. Emits a {Transfer} event.",
        "params": {
          "amount": "{uint256[]} amount to transfer",
          "to": "{address} wallet to transfer the token"
        }
      },
      "transferFrom(address,address,uint256)": {
        "details": "Transfer and send `amount` tokens from `from` to `to` Returns a boolean value indicating whether the operation succeeded. Emits a {Transfer} event.",
        "params": {
          "amount": "{uint256[]} amount to transfer",
          "from": "{address} wallet from transfer the token",
          "to": "{address} wallet to transfer the token"
        }
      },
      "transferOwnership(address)": {
        "params": {
          "account": "{address} address of the new owner"
        }
      },
      "version()": {
        "returns": {
          "_0": "TOKEN_VERSION {string} version of the smart contract"
        }
      },
      "voteToRequest(bool,uint256)": {
        "params": {
          "amount": "{uint256} amount of vote request, need to be lower than balance of shareholder",
          "vote": "{boolean} accept (true) or reject (false) request"
        }
      },
      "withdraw(uint256,address)": {
        "params": {
          "amount": "{uint256} the number of tokens transferred",
          "receiver": "{address} the recipient of the token transfer"
        }
      },
      "withdrawable(uint256)": {
        "params": {
          "amount": "{uint256} the number of tokens withdraw"
        },
        "returns": {
          "weiWithdrawable": "{uint256} the number of wei transferrable"
        }
      }
    },
    "version": 1
  },
  "userdoc": {
    "kind": "user",
    "methods": {
      "burn(address,uint256)": {
        "notice": "Remove `amount` tokens from `account` Returns a boolean value indicating whether the operation succeeded. Emits a {Transfer} event."
      },
      "canTransfer(address,address,address,uint256)": {
        "notice": "Interface of transfer method, return hex code error message"
      },
      "getRequest()": {
        "notice": "Get request to by owner"
      },
      "mint(address,uint256)": {
        "notice": "Mint and send `amount` tokens to `to` Returns a boolean value indicating whether the operation succeeded. Emits a {Transfer} event."
      },
      "owner()": {
        "notice": "Returns the address wallet of the smart contract owner."
      },
      "refoundable(uint256)": {
        "notice": "Return amount of refoundable for amount of tokens burned"
      },
      "setRequest(string,uint256)": {
        "notice": "Owner request (and request for withdraw if _rules.voteToWithdraw == true) with a comment and amount (Request can't be equal to last request and set request restart all votes)"
      },
      "transferOwnership(address)": {
        "notice": "Transfer ownership of the smart contract"
      },
      "version()": {
        "notice": "Returns the version of the token contract"
      },
      "voteToRequest(bool,uint256)": {
        "notice": "Shareholder vote to the request of owner"
      },
      "withdraw(uint256,address)": {
        "notice": "Withdraw tokens amount of contract balance"
      },
      "withdrawable(uint256)": {
        "notice": "Check if amout is withdrawable"
      }
    },
    "version": 1
  }
}