{
  "contractName": "SecurityTokenImmutable",
  "abi": [
    {
      "inputs": [
        {
          "internalType": "string",
          "name": "_name",
          "type": "string"
        },
        {
          "internalType": "string",
          "name": "_code",
          "type": "string"
        },
        {
          "components": [
            {
              "internalType": "bool",
              "name": "pausable",
              "type": "bool"
            },
            {
              "internalType": "bool",
              "name": "rulesModifiable",
              "type": "bool"
            },
            {
              "internalType": "bool",
              "name": "voteToWithdraw",
              "type": "bool"
            },
            {
              "internalType": "uint256",
              "name": "dayToWithdraw",
              "type": "uint256"
            },
            {
              "internalType": "uint256",
              "name": "startFundraising",
              "type": "uint256"
            },
            {
              "internalType": "uint256",
              "name": "endFundraising",
              "type": "uint256"
            },
            {
              "internalType": "uint256",
              "name": "maxSupply",
              "type": "uint256"
            }
          ],
          "internalType": "struct TokenLibrary.Rules",
          "name": "_rules",
          "type": "tuple"
        }
      ],
      "stateMutability": "nonpayable",
      "type": "constructor"
    },
    {
      "inputs": [
        {
          "internalType": "address",
          "name": "sender",
          "type": "address"
        }
      ],
      "name": "NotReader",
      "type": "error"
    },
    {
      "anonymous": false,
      "inputs": [
        {
          "indexed": true,
          "internalType": "address",
          "name": "owner",
          "type": "address"
        },
        {
          "indexed": true,
          "internalType": "address",
          "name": "spender",
          "type": "address"
        },
        {
          "indexed": false,
          "internalType": "uint256",
          "name": "value",
          "type": "uint256"
        }
      ],
      "name": "Approval",
      "type": "event"
    },
    {
      "anonymous": false,
      "inputs": [
        {
          "indexed": false,
          "internalType": "address",
          "name": "operator",
          "type": "address"
        },
        {
          "indexed": false,
          "internalType": "address",
          "name": "sender",
          "type": "address"
        },
        {
          "indexed": false,
          "internalType": "uint256",
          "name": "value",
          "type": "uint256"
        }
      ],
      "name": "HandlePaiement",
      "type": "event"
    },
    {
      "anonymous": false,
      "inputs": [
        {
          "indexed": false,
          "internalType": "address",
          "name": "operator",
          "type": "address"
        },
        {
          "indexed": false,
          "internalType": "uint256",
          "name": "value",
          "type": "uint256"
        }
      ],
      "name": "InjectCapital",
      "type": "event"
    },
    {
      "anonymous": false,
      "inputs": [
        {
          "indexed": true,
          "internalType": "address",
          "name": "previousOwner",
          "type": "address"
        },
        {
          "indexed": true,
          "internalType": "address",
          "name": "newOwner",
          "type": "address"
        }
      ],
      "name": "OwnershipTransferred",
      "type": "event"
    },
    {
      "anonymous": false,
      "inputs": [
        {
          "indexed": true,
          "internalType": "address",
          "name": "sender",
          "type": "address"
        },
        {
          "indexed": true,
          "internalType": "uint256",
          "name": "paused",
          "type": "uint256"
        }
      ],
      "name": "Paused",
      "type": "event"
    },
    {
      "anonymous": false,
      "inputs": [
        {
          "indexed": true,
          "internalType": "address",
          "name": "_reader",
          "type": "address"
        }
      ],
      "name": "ReaderAdded",
      "type": "event"
    },
    {
      "anonymous": false,
      "inputs": [
        {
          "indexed": true,
          "internalType": "address",
          "name": "_reader",
          "type": "address"
        }
      ],
      "name": "ReaderRemoved",
      "type": "event"
    },
    {
      "anonymous": false,
      "inputs": [
        {
          "indexed": true,
          "internalType": "address",
          "name": "from",
          "type": "address"
        },
        {
          "indexed": true,
          "internalType": "address",
          "name": "to",
          "type": "address"
        },
        {
          "indexed": false,
          "internalType": "uint256",
          "name": "value",
          "type": "uint256"
        }
      ],
      "name": "Transfer",
      "type": "event"
    },
    {
      "anonymous": false,
      "inputs": [
        {
          "indexed": false,
          "internalType": "string",
          "name": "eventType",
          "type": "string"
        },
        {
          "indexed": true,
          "internalType": "address",
          "name": "from",
          "type": "address"
        },
        {
          "indexed": true,
          "internalType": "address",
          "name": "to",
          "type": "address"
        },
        {
          "indexed": false,
          "internalType": "uint256",
          "name": "value",
          "type": "uint256"
        }
      ],
      "name": "Transfer",
      "type": "event"
    },
    {
      "anonymous": false,
      "inputs": [
        {
          "indexed": true,
          "internalType": "address",
          "name": "oldAccount",
          "type": "address"
        },
        {
          "indexed": true,
          "internalType": "address",
          "name": "newAccount",
          "type": "address"
        }
      ],
      "name": "TransferOwnership",
      "type": "event"
    },
    {
      "inputs": [
        {
          "internalType": "address",
          "name": "_reader",
          "type": "address"
        }
      ],
      "name": "addReader",
      "outputs": [],
      "stateMutability": "nonpayable",
      "type": "function"
    },
    {
      "inputs": [
        {
          "internalType": "address",
          "name": "owner",
          "type": "address"
        },
        {
          "internalType": "address",
          "name": "spender",
          "type": "address"
        }
      ],
      "name": "allowance",
      "outputs": [
        {
          "internalType": "uint256",
          "name": "",
          "type": "uint256"
        }
      ],
      "stateMutability": "view",
      "type": "function"
    },
    {
      "inputs": [
        {
          "internalType": "address",
          "name": "spender",
          "type": "address"
        },
        {
          "internalType": "uint256",
          "name": "amount",
          "type": "uint256"
        }
      ],
      "name": "approve",
      "outputs": [
        {
          "internalType": "bool",
          "name": "",
          "type": "bool"
        }
      ],
      "stateMutability": "nonpayable",
      "type": "function"
    },
    {
      "inputs": [],
      "name": "decimals",
      "outputs": [
        {
          "internalType": "uint8",
          "name": "",
          "type": "uint8"
        }
      ],
      "stateMutability": "view",
      "type": "function"
    },
    {
      "inputs": [
        {
          "internalType": "address",
          "name": "spender",
          "type": "address"
        },
        {
          "internalType": "uint256",
          "name": "subtractedValue",
          "type": "uint256"
        }
      ],
      "name": "decreaseAllowance",
      "outputs": [
        {
          "internalType": "bool",
          "name": "",
          "type": "bool"
        }
      ],
      "stateMutability": "nonpayable",
      "type": "function"
    },
    {
      "inputs": [
        {
          "internalType": "address",
          "name": "spender",
          "type": "address"
        },
        {
          "internalType": "uint256",
          "name": "addedValue",
          "type": "uint256"
        }
      ],
      "name": "increaseAllowance",
      "outputs": [
        {
          "internalType": "bool",
          "name": "",
          "type": "bool"
        }
      ],
      "stateMutability": "nonpayable",
      "type": "function"
    },
    {
      "inputs": [
        {
          "internalType": "address",
          "name": "_reader",
          "type": "address"
        }
      ],
      "name": "isReader",
      "outputs": [
        {
          "internalType": "bool",
          "name": "",
          "type": "bool"
        }
      ],
      "stateMutability": "view",
      "type": "function"
    },
    {
      "inputs": [],
      "name": "name",
      "outputs": [
        {
          "internalType": "string",
          "name": "",
          "type": "string"
        }
      ],
      "stateMutability": "view",
      "type": "function"
    },
    {
      "inputs": [
        {
          "internalType": "address",
          "name": "_reader",
          "type": "address"
        }
      ],
      "name": "removeReader",
      "outputs": [],
      "stateMutability": "nonpayable",
      "type": "function"
    },
    {
      "inputs": [],
      "name": "renounceOwnership",
      "outputs": [],
      "stateMutability": "nonpayable",
      "type": "function"
    },
    {
      "inputs": [],
      "name": "symbol",
      "outputs": [
        {
          "internalType": "string",
          "name": "",
          "type": "string"
        }
      ],
      "stateMutability": "view",
      "type": "function"
    },
    {
      "inputs": [],
      "name": "_now",
      "outputs": [
        {
          "internalType": "uint256",
          "name": "",
          "type": "uint256"
        }
      ],
      "stateMutability": "view",
      "type": "function"
    },
    {
      "inputs": [
        {
          "internalType": "address",
          "name": "_addressProxy",
          "type": "address"
        }
      ],
      "name": "setAddressProxy",
      "outputs": [],
      "stateMutability": "nonpayable",
      "type": "function"
    },
    {
      "inputs": [],
      "name": "getAddressProxy",
      "outputs": [
        {
          "internalType": "address",
          "name": "",
          "type": "address"
        }
      ],
      "stateMutability": "view",
      "type": "function"
    },
    {
      "inputs": [
        {
          "internalType": "uint256",
          "name": "startFundraising",
          "type": "uint256"
        },
        {
          "internalType": "uint256",
          "name": "endFundraising",
          "type": "uint256"
        },
        {
          "internalType": "uint256",
          "name": "maxSupply",
          "type": "uint256"
        }
      ],
      "name": "setFundraising",
      "outputs": [],
      "stateMutability": "nonpayable",
      "type": "function"
    },
    {
      "inputs": [
        {
          "components": [
            {
              "internalType": "bool",
              "name": "pausable",
              "type": "bool"
            },
            {
              "internalType": "bool",
              "name": "rulesModifiable",
              "type": "bool"
            },
            {
              "internalType": "bool",
              "name": "voteToWithdraw",
              "type": "bool"
            },
            {
              "internalType": "uint256",
              "name": "dayToWithdraw",
              "type": "uint256"
            },
            {
              "internalType": "uint256",
              "name": "startFundraising",
              "type": "uint256"
            },
            {
              "internalType": "uint256",
              "name": "endFundraising",
              "type": "uint256"
            },
            {
              "internalType": "uint256",
              "name": "maxSupply",
              "type": "uint256"
            }
          ],
          "internalType": "struct TokenLibrary.Rules",
          "name": "_rules",
          "type": "tuple"
        }
      ],
      "name": "setRules",
      "outputs": [],
      "stateMutability": "nonpayable",
      "type": "function"
    },
    {
      "inputs": [],
      "name": "getRules",
      "outputs": [
        {
          "components": [
            {
              "internalType": "bool",
              "name": "pausable",
              "type": "bool"
            },
            {
              "internalType": "bool",
              "name": "rulesModifiable",
              "type": "bool"
            },
            {
              "internalType": "bool",
              "name": "voteToWithdraw",
              "type": "bool"
            },
            {
              "internalType": "uint256",
              "name": "dayToWithdraw",
              "type": "uint256"
            },
            {
              "internalType": "uint256",
              "name": "startFundraising",
              "type": "uint256"
            },
            {
              "internalType": "uint256",
              "name": "endFundraising",
              "type": "uint256"
            },
            {
              "internalType": "uint256",
              "name": "maxSupply",
              "type": "uint256"
            }
          ],
          "internalType": "struct TokenLibrary.Rules",
          "name": "",
          "type": "tuple"
        }
      ],
      "stateMutability": "view",
      "type": "function"
    },
    {
      "inputs": [],
      "name": "version",
      "outputs": [
        {
          "internalType": "string",
          "name": "",
          "type": "string"
        }
      ],
      "stateMutability": "pure",
      "type": "function"
    },
    {
      "inputs": [],
      "name": "owner",
      "outputs": [
        {
          "internalType": "address",
          "name": "",
          "type": "address"
        }
      ],
      "stateMutability": "view",
      "type": "function"
    },
    {
      "inputs": [
        {
          "internalType": "uint32",
          "name": "skip",
          "type": "uint32"
        },
        {
          "internalType": "uint32",
          "name": "limit",
          "type": "uint32"
        }
      ],
      "name": "transfers",
      "outputs": [
        {
          "components": [
            {
              "internalType": "string",
              "name": "transferType",
              "type": "string"
            },
            {
              "internalType": "address",
              "name": "from",
              "type": "address"
            },
            {
              "internalType": "address",
              "name": "to",
              "type": "address"
            },
            {
              "internalType": "uint256",
              "name": "amount",
              "type": "uint256"
            },
            {
              "internalType": "uint256",
              "name": "date",
              "type": "uint256"
            }
          ],
          "internalType": "struct TokenLibrary.Transfer[]",
          "name": "",
          "type": "tuple[]"
        }
      ],
      "stateMutability": "view",
      "type": "function"
    },
    {
      "inputs": [
        {
          "internalType": "address",
          "name": "account",
          "type": "address"
        }
      ],
      "name": "transferOwnership",
      "outputs": [],
      "stateMutability": "nonpayable",
      "type": "function"
    },
    {
      "inputs": [
        {
          "internalType": "address",
          "name": "to",
          "type": "address"
        },
        {
          "internalType": "uint256",
          "name": "amount",
          "type": "uint256"
        }
      ],
      "name": "mint",
      "outputs": [
        {
          "internalType": "bool",
          "name": "",
          "type": "bool"
        }
      ],
      "stateMutability": "payable",
      "type": "function"
    },
    {
      "inputs": [
        {
          "internalType": "address",
          "name": "account",
          "type": "address"
        },
        {
          "internalType": "uint256",
          "name": "amount",
          "type": "uint256"
        },
        {
          "internalType": "uint256",
          "name": "refoundable",
          "type": "uint256"
        }
      ],
      "name": "burn",
      "outputs": [
        {
          "internalType": "bool",
          "name": "",
          "type": "bool"
        }
      ],
      "stateMutability": "nonpayable",
      "type": "function"
    },
    {
      "inputs": [
        {
          "internalType": "address",
          "name": "to",
          "type": "address"
        },
        {
          "internalType": "uint256",
          "name": "amount",
          "type": "uint256"
        }
      ],
      "name": "transfer",
      "outputs": [
        {
          "internalType": "bool",
          "name": "",
          "type": "bool"
        }
      ],
      "stateMutability": "nonpayable",
      "type": "function"
    },
    {
      "inputs": [
        {
          "internalType": "address",
          "name": "from",
          "type": "address"
        },
        {
          "internalType": "address",
          "name": "to",
          "type": "address"
        },
        {
          "internalType": "uint256",
          "name": "amount",
          "type": "uint256"
        }
      ],
      "name": "transferFrom",
      "outputs": [
        {
          "internalType": "bool",
          "name": "",
          "type": "bool"
        }
      ],
      "stateMutability": "nonpayable",
      "type": "function"
    },
    {
      "inputs": [],
      "name": "totalSupply",
      "outputs": [
        {
          "internalType": "uint256",
          "name": "",
          "type": "uint256"
        }
      ],
      "stateMutability": "view",
      "type": "function"
    },
    {
      "inputs": [
        {
          "internalType": "address",
          "name": "account",
          "type": "address"
        }
      ],
      "name": "balanceOf",
      "outputs": [
        {
          "internalType": "uint256",
          "name": "",
          "type": "uint256"
        }
      ],
      "stateMutability": "view",
      "type": "function"
    },
    {
      "inputs": [
        {
          "internalType": "uint256",
          "name": "_paused",
          "type": "uint256"
        }
      ],
      "name": "pause",
      "outputs": [],
      "stateMutability": "nonpayable",
      "type": "function"
    },
    {
      "inputs": [],
      "name": "unpause",
      "outputs": [],
      "stateMutability": "nonpayable",
      "type": "function"
    },
    {
      "inputs": [],
      "name": "isPaused",
      "outputs": [
        {
          "internalType": "uint256",
          "name": "",
          "type": "uint256"
        }
      ],
      "stateMutability": "view",
      "type": "function"
    },
    {
      "inputs": [
        {
          "internalType": "uint256",
          "name": "amount",
          "type": "uint256"
        },
        {
          "internalType": "address",
          "name": "receiver",
          "type": "address"
        }
      ],
      "name": "withdraw",
      "outputs": [
        {
          "internalType": "bool",
          "name": "",
          "type": "bool"
        }
      ],
      "stateMutability": "nonpayable",
      "type": "function"
    },
    {
      "inputs": [
        {
          "internalType": "address",
          "name": "senderAddress",
          "type": "address"
        }
      ],
      "name": "handlePayment",
      "outputs": [
        {
          "internalType": "bool",
          "name": "",
          "type": "bool"
        }
      ],
      "stateMutability": "payable",
      "type": "function"
    },
    {
      "inputs": [],
      "name": "injectCapital",
      "outputs": [
        {
          "internalType": "bool",
          "name": "",
          "type": "bool"
        }
      ],
      "stateMutability": "payable",
      "type": "function"
    }
  ],
  "bytecode": "0x608060405234801562000010575f80fd5b506040516200257d3803806200257d833981016040819052620000339162000254565b82826003620000438382620003c9565b506004620000528282620003c9565b5050506200006f62000069620000f060201b60201c565b620000f4565b600880546001600160a01b031916331790558051600b8054602084015160408501511515620100000262ff0000199115156101000261ff00199515159590951661ffff199093169290921793909317929092169190911790556060810151600c556080810151600d5560a0810151600e5560c00151600f5550620004919050565b3390565b600580546001600160a01b038381166001600160a01b0319831681179093556040519116919082907f8be0079c531659141344cd1fd0a4f28419497f9722a3daafe3b4186f6b6457e0905f90a35050565b634e487b7160e01b5f52604160045260245ffd5b60405160e081016001600160401b03811182821017156200017e576200017e62000145565b60405290565b604051601f8201601f191681016001600160401b0381118282101715620001af57620001af62000145565b604052919050565b5f82601f830112620001c7575f80fd5b81516001600160401b03811115620001e357620001e362000145565b6020620001f9601f8301601f1916820162000184565b82815285828487010111156200020d575f80fd5b5f5b838110156200022c5785810183015182820184015282016200020f565b505f928101909101919091529392505050565b805180151581146200024f575f80fd5b919050565b5f805f83850361012081121562000269575f80fd5b84516001600160401b038082111562000280575f80fd5b6200028e88838901620001b7565b95506020870151915080821115620002a4575f80fd5b50620002b387828801620001b7565b93505060e0603f1982011215620002c8575f80fd5b50620002d362000159565b620002e1604086016200023f565b8152620002f1606086016200023f565b602082015262000304608086016200023f565b604082015260a0850151606082015260c0850151608082015260e085015160a082015261010085015160c0820152809150509250925092565b600181811c908216806200035257607f821691505b6020821081036200037157634e487b7160e01b5f52602260045260245ffd5b50919050565b601f821115620003c4575f81815260208120601f850160051c810160208610156200039f5750805b601f850160051c820191505b81811015620003c057828155600101620003ab565b5050505b505050565b81516001600160401b03811115620003e557620003e562000145565b620003fd81620003f684546200033d565b8462000377565b602080601f83116001811462000433575f84156200041b5750858301515b5f19600386901b1c1916600185901b178555620003c0565b5f85815260208120601f198616915b82811015620004635788860151825594840194600190910190840162000442565b50858210156200048157878501515f19600388901b60f8161c191681555b5050505050600190811b01905550565b6120de806200049f5f395ff3fe60806040526004361061017c575f3560e01c8062f714ce1461018057806306fdde03146101b4578063095ea7b3146101d5578063136439dd146101f457806318160ddd1461021557806323b872dd146102375780632a87e1d214610256578063313ce5671461027557806338d65d111461029057806339509351146102af5780633f4ba83a146102ce57806340c10f19146102e257806341bb26d3146102f557806345e2984a1461030857806354fd4d501461037757806369a7ddf7146103a45780636c9c1cc1146103c357806370a08231146103ef578063715018a61461040e5780638da5cb5b1461042257806395d89b411461044357806399de43a214610457578063a457c2d714610476578063a9059cbb14610495578063afd8b1d1146104b4578063b187bd26146104d3578063b3bb8cd4146104e7578063cd0aa36d146104f9578063dd62ed3e14610516578063f2fde38b14610535578063f3c7b6a714610554578063f5298aca1461055c578063ff18889c1461057b575b5f80fd5b34801561018b575f80fd5b5061019f61019a366004611a62565b61059a565b60405190151581526020015b60405180910390f35b3480156101bf575f80fd5b506101c861067a565b6040516101ab9190611ad3565b3480156101e0575f80fd5b5061019f6101ef366004611aec565b61070a565b3480156101ff575f80fd5b5061021361020e366004611b16565b610721565b005b348015610220575f80fd5b5061022961078a565b6040519081526020016101ab565b348015610242575f80fd5b5061019f610251366004611b2d565b610799565b348015610261575f80fd5b50610213610270366004611b6b565b6107d9565b348015610280575f80fd5b50604051601281526020016101ab565b34801561029b575f80fd5b506102136102aa366004611b94565b6107ef565b3480156102ba575f80fd5b5061019f6102c9366004611aec565b610838565b3480156102d9575f80fd5b50610213610859565b61019f6102f0366004611aec565b6108e8565b61019f610303366004611b94565b610930565b348015610313575f80fd5b5061031c610982565b6040516101ab91905f60e082019050825115158252602083015115156020830152604083015115156040830152606083015160608301526080830151608083015260a083015160a083015260c083015160c083015292915050565b348015610382575f80fd5b50604080518082019091526005815264302e302e3160d81b60208201526101c8565b3480156103af575f80fd5b5061019f6103be366004611b94565b610a9a565b3480156103ce575f80fd5b506103e26103dd366004611bc7565b610aa6565b6040516101ab9190611bf8565b3480156103fa575f80fd5b50610229610409366004611b94565b610d0f565b348015610419575f80fd5b50610213610d2c565b34801561042d575f80fd5b50610436610d3f565b6040516101ab9190611c97565b34801561044e575f80fd5b506101c8610d4e565b348015610462575f80fd5b50610213610471366004611cce565b610d5d565b348015610481575f80fd5b5061019f610490366004611aec565b610e24565b3480156104a0575f80fd5b5061019f6104af366004611aec565b610ea9565b3480156104bf575f80fd5b506102136104ce366004611b94565b610eb5565b3480156104de575f80fd5b50600a54610229565b3480156104f2575f80fd5b5042610229565b348015610504575f80fd5b506007546001600160a01b0316610436565b348015610521575f80fd5b50610229610530366004611d62565b610efe565b348015610540575f80fd5b5061021361054f366004611b94565b610f28565b61019f610f8b565b348015610567575f80fd5b5061019f610576366004611d8e565b610fdc565b348015610586575f80fd5b50610213610595366004611b94565b6110b1565b6007545f906001600160a01b0316336001600160a01b0316146105d85760405162461bcd60e51b81526004016105cf90611dc0565b60405180910390fd5b5f826001600160a01b0316846040515f6040518083038185875af1925050503d805f8114610621576040519150601f19603f3d011682016040523d82523d5f602084013e610626565b606091505b50509050806106715760405162461bcd60e51b815260206004820152601760248201527615da5d1a191c985dc81b9bdd081cdd58d8d95cdcd99d5b604a1b60448201526064016105cf565b90505b92915050565b60606003805461068990611df6565b80601f01602080910402602001604051908101604052809291908181526020018280546106b590611df6565b80156107005780601f106106d757610100808354040283529160200191610700565b820191905f5260205f20905b8154815290600101906020018083116106e357829003601f168201915b5050505050905090565b5f33610717818585611195565b5060019392505050565b600a5442116107425760405162461bcd60e51b81526004016105cf90611e2e565b600b5460ff1615156001146107695760405162461bcd60e51b81526004016105cf90611e58565b600a819055604051819033905f80516020612069833981519152905f90a350565b5f61079460025490565b905090565b6007545f906001600160a01b0316336001600160a01b0316146107ce5760405162461bcd60e51b81526004016105cf90611dc0565b6107178484846112b8565b6107e16112f4565b600d92909255600e55600f55565b6107f76112f4565b610802600682611353565b6040516001600160a01b038216907fe933431644458f1217f9e93d3e000e03c9bbbe55761046d0985c2e4d157bcbaa905f90a250565b5f3361071781858561084a8383610efe565b6108549190611e9a565b611195565b600a544211156108a25760405162461bcd60e51b815260206004820152601460248201527314185d5cd8589b194e881b9bdd081c185d5cd95960621b60448201526064016105cf565b600b5460ff1615156001146108c95760405162461bcd60e51b81526004016105cf90611e58565b5f600a81905560405133905f80516020612069833981519152908390a3565b6007545f906001600160a01b0316336001600160a01b03161461091d5760405162461bcd60e51b81526004016105cf90611dc0565b61092783836113d4565b50600192915050565b604080513381526001600160a01b0383166020820152348183015290515f917f224f3111e0124d402f6469ecc4f4fb8cec5013a2ccaac80d1e9434525eceef3f919081900360600190a1506001919050565b6109c16040518060e001604052805f151581526020015f151581526020015f151581526020015f81526020015f81526020015f81526020015f81525090565b6007546001600160a01b0316336001600160a01b031614806109f657506008546001600160a01b0316336001600160a01b0316145b610a415760405162461bcd60e51b815260206004820152601c60248201527b43616c6c6572206973206e6f74206f776e6572206f722070726f787960201b60448201526064016105cf565b506040805160e081018252600b5460ff8082161515835261010082048116151560208401526201000090910416151591810191909152600c546060820152600d546080820152600e5460a0820152600f5460c082015290565b5f61067460068361140a565b6060610ab133610a9a565b158015610ace575033610ac2610d3f565b6001600160a01b031614155b15610aee57336040516325bfed0960e11b81526004016105cf9190611c97565b6008545f908390610b0d908690600160a01b900463ffffffff16611ead565b610b179190611ead565b63ffffffff166001600160401b03811115610b3457610b34611cab565b604051908082528060200260200182016040528015610ba557816020015b610b926040518060a00160405280606081526020015f6001600160a01b031681526020015f6001600160a01b031681526020015f81526020015f81525090565b815260200190600190039081610b525790505b5090505f610bb38582611ed1565b90505b63ffffffff841615610bc85783610bd9565b600854600160a01b900463ffffffff165b63ffffffff168163ffffffff161015610d075763ffffffff81165f9081526009602052604090819020815160a08101909252805482908290610c1a90611df6565b80601f0160208091040260200160405190810160405280929190818152602001828054610c4690611df6565b8015610c915780601f10610c6857610100808354040283529160200191610c91565b820191905f5260205f20905b815481529060010190602001808311610c7457829003601f168201915b505050918352505060018201546001600160a01b0390811660208301526002830154166040820152600382015460608201526004909101546080909101528251839063ffffffff8416908110610ce957610ce9611eee565b60200260200101819052508080610cff90611f02565b915050610bb6565b509392505050565b6001600160a01b0381165f90815260208190526040812054610674565b610d346112f4565b610d3d5f61148b565b565b6008546001600160a01b031690565b60606004805461068990611df6565b610d656112f4565b600b5460ff610100909104161515600114610dbc5760405162461bcd60e51b815260206004820152601760248201527652756c6573206973206e6f74206d6f6469666961626c6560481b60448201526064016105cf565b8051600b8054602084015160408501511515620100000262ff0000199115156101000261ff00199515159590951661ffff199093169290921793909317929092169190911790556060810151600c556080810151600d5560a0810151600e5560c00151600f55565b5f3381610e318286610efe565b905083811015610e915760405162461bcd60e51b815260206004820152602560248201527f45524332303a2064656372656173656420616c6c6f77616e63652062656c6f77604482015264207a65726f60d81b60648201526084016105cf565b610e9e8286868403611195565b506001949350505050565b5f6109273384846112b8565b610ebd6112f4565b610ec86006826114dc565b6040516001600160a01b038216907fb7724d890d2888af5a3fc456edb667e2c82c4441449ebcac301c618759e4f86d905f90a250565b6001600160a01b039182165f90815260016020908152604080832093909416825291909152205490565b610f306112f4565b6008546040516001600160a01b038084169216907f5c486528ec3e3f0ea91181cff8116f02bfa350e03b8b6f12e00765adbb5af85c905f90a3600880546001600160a01b0319166001600160a01b0392909216919091179055565b5f610f946112f4565b7f5fd7e473e4c9f40f9aee4bcca944d0a219b4139712b081b8c95edfd2e9bd438733604080516001600160a01b0390921682523460208301520160405180910390a150600190565b6007545f906001600160a01b0316336001600160a01b0316146110115760405162461bcd60e51b81526004016105cf90611dc0565b61101b8484611557565b5f846001600160a01b0316836040515f6040518083038185875af1925050503d805f8114611064576040519150601f19603f3d011682016040523d82523d5f602084013e611069565b606091505b5050905080610e9e5760405162461bcd60e51b81526020600482015260146024820152732330b4b632b2103a379039b2b7321022ba3432b960611b60448201526064016105cf565b6110b9610d3f565b6001600160a01b0316816001600160a01b0316638da5cb5b6040518163ffffffff1660e01b8152600401602060405180830381865afa1580156110fe573d5f803e3d5ffd5b505050506040513d601f19601f820116820180604052508101906111229190611f24565b6001600160a01b0316146111735760405162461bcd60e51b815260206004820152601860248201527724b73b30b634b21031b7b73a3930b1ba10131027bbb732b960411b60448201526064016105cf565b600780546001600160a01b0319166001600160a01b0392909216919091179055565b6001600160a01b0383166111f75760405162461bcd60e51b8152602060048201526024808201527f45524332303a20617070726f76652066726f6d20746865207a65726f206164646044820152637265737360e01b60648201526084016105cf565b6001600160a01b0382166112585760405162461bcd60e51b815260206004820152602260248201527f45524332303a20617070726f766520746f20746865207a65726f206164647265604482015261737360f01b60648201526084016105cf565b6001600160a01b038381165f8181526001602090815260408083209487168084529482529182902085905590518481527f8c5be1e5ebec7d5bd14f71427d1e84f3dd0314c0f7b2291e5b200ac8c7c3b925910160405180910390a3505050565b6112c3838383611589565b6112ef604051806040016040528060088152602001673a3930b739b332b960c11b815250848484611719565b505050565b336112fd610d3f565b6001600160a01b031614610d3d5760405162461bcd60e51b815260206004820181905260248201527f4f776e61626c653a2063616c6c6572206973206e6f7420746865206f776e657260448201526064016105cf565b61135d828261140a565b6113b35760405162461bcd60e51b815260206004820152602160248201527f526f6c65733a206163636f756e7420646f6573206e6f74206861766520726f6c6044820152606560f81b60648201526084016105cf565b6001600160a01b03165f90815260209190915260409020805460ff19169055565b6113de8282611884565b611406604051806040016040528060048152602001631b5a5b9d60e21b8152505f8484611719565b5050565b5f6001600160a01b03821661146c5760405162461bcd60e51b815260206004820152602260248201527f526f6c65733a206163636f756e7420697320746865207a65726f206164647265604482015261737360f01b60648201526084016105cf565b506001600160a01b03165f908152602091909152604090205460ff1690565b600580546001600160a01b038381166001600160a01b0319831681179093556040519116919082907f8be0079c531659141344cd1fd0a4f28419497f9722a3daafe3b4186f6b6457e0905f90a35050565b6114e6828261140a565b156115335760405162461bcd60e51b815260206004820152601f60248201527f526f6c65733a206163636f756e7420616c72656164792068617320726f6c650060448201526064016105cf565b6001600160a01b03165f90815260209190915260409020805460ff19166001179055565b611561828261192e565b61140660405180604001604052806004815260200163313ab93760e11b815250835f84611719565b6001600160a01b0383166115ed5760405162461bcd60e51b815260206004820152602560248201527f45524332303a207472616e736665722066726f6d20746865207a65726f206164604482015264647265737360d81b60648201526084016105cf565b6001600160a01b03821661164f5760405162461bcd60e51b815260206004820152602360248201527f45524332303a207472616e7366657220746f20746865207a65726f206164647260448201526265737360e81b60648201526084016105cf565b6001600160a01b0383165f90815260208190526040902054818110156116c65760405162461bcd60e51b815260206004820152602660248201527f45524332303a207472616e7366657220616d6f756e7420657863656564732062604482015265616c616e636560d01b60648201526084016105cf565b6001600160a01b038481165f81815260208181526040808320878703905593871680835291849020805487019055925185815290925f80516020612089833981519152910160405180910390a350505050565b600a54421161173a5760405162461bcd60e51b81526004016105cf90611e2e565b816001600160a01b0316836001600160a01b03167f54c25aa230f7ee0c1e146d3416a3a4972d9fa34640b86e84383b461a585593de868460405161177f929190611f3f565b60405180910390a36040518060a00160405280858152602001846001600160a01b03168152602001836001600160a01b031681526020018281526020016117c34290565b9052600854600160a01b900463ffffffff165f908152600960205260409020815181906117f09082611fad565b5060208201516001820180546001600160a01b039283166001600160a01b0319918216179091556040840151600284018054919093169116179055606082015160038201556080909101516004909101556008805463ffffffff600160a01b9091041690601461185f83611f02565b91906101000a81548163ffffffff021916908363ffffffff1602179055505050505050565b6001600160a01b0382166118da5760405162461bcd60e51b815260206004820152601f60248201527f45524332303a206d696e7420746f20746865207a65726f20616464726573730060448201526064016105cf565b8060025f8282546118eb9190611e9a565b90915550506001600160a01b0382165f81815260208181526040808320805486019055518481525f80516020612089833981519152910160405180910390a35050565b6001600160a01b03821661198e5760405162461bcd60e51b815260206004820152602160248201527f45524332303a206275726e2066726f6d20746865207a65726f206164647265736044820152607360f81b60648201526084016105cf565b6001600160a01b0382165f9081526020819052604090205481811015611a015760405162461bcd60e51b815260206004820152602260248201527f45524332303a206275726e20616d6f756e7420657863656564732062616c616e604482015261636560f01b60648201526084016105cf565b6001600160a01b0383165f818152602081815260408083208686039055600280548790039055518581529192915f80516020612089833981519152910160405180910390a3505050565b6001600160a01b0381168114611a5f575f80fd5b50565b5f8060408385031215611a73575f80fd5b823591506020830135611a8581611a4b565b809150509250929050565b5f81518084525f5b81811015611ab457602081850181015186830182015201611a98565b505f602082860101526020601f19601f83011685010191505092915050565b602081525f611ae56020830184611a90565b9392505050565b5f8060408385031215611afd575f80fd5b8235611b0881611a4b565b946020939093013593505050565b5f60208284031215611b26575f80fd5b5035919050565b5f805f60608486031215611b3f575f80fd5b8335611b4a81611a4b565b92506020840135611b5a81611a4b565b929592945050506040919091013590565b5f805f60608486031215611b7d575f80fd5b505081359360208301359350604090920135919050565b5f60208284031215611ba4575f80fd5b813561067181611a4b565b803563ffffffff81168114611bc2575f80fd5b919050565b5f8060408385031215611bd8575f80fd5b611be183611baf565b9150611bef60208401611baf565b90509250929050565b5f6020808301818452808551808352604092508286019150828160051b8701018488015f5b83811015611c8957603f19898403018552815160a08151818652611c4382870182611a90565b838b01516001600160a01b03908116888d01528a850151168a88015260608085015190880152608093840151939096019290925250509386019390860190600101611c1d565b509098975050505050505050565b6001600160a01b0391909116815260200190565b634e487b7160e01b5f52604160045260245ffd5b80358015158114611bc2575f80fd5b5f60e08284031215611cde575f80fd5b60405160e081016001600160401b0381118282101715611d0057611d00611cab565b604052611d0c83611cbf565b8152611d1a60208401611cbf565b6020820152611d2b60408401611cbf565b6040820152606083013560608201526080830135608082015260a083013560a082015260c083013560c08201528091505092915050565b5f8060408385031215611d73575f80fd5b8235611d7e81611a4b565b91506020830135611a8581611a4b565b5f805f60608486031215611da0575f80fd5b8335611dab81611a4b565b95602085013595506040909401359392505050565b6020808252601c908201527b139bdd0818d85b1b195908189e481c1c9bde1e4818dbdb9d1c9858dd60221b604082015260600190565b600181811c90821680611e0a57607f821691505b602082108103611e2857634e487b7160e01b5f52602260045260245ffd5b50919050565b60208082526010908201526f14185d5cd8589b194e881c185d5cd95960821b604082015260600190565b60208082526014908201527314185d5cd9481a5cc81b9bdd08185b1b1bddd95960621b604082015260600190565b634e487b7160e01b5f52601160045260245ffd5b8082018082111561067457610674611e86565b63ffffffff828116828216039080821115611eca57611eca611e86565b5092915050565b63ffffffff818116838216019080821115611eca57611eca611e86565b634e487b7160e01b5f52603260045260245ffd5b5f63ffffffff808316818103611f1a57611f1a611e86565b6001019392505050565b5f60208284031215611f34575f80fd5b815161067181611a4b565b604081525f611f516040830185611a90565b90508260208301529392505050565b601f8211156112ef575f81815260208120601f850160051c81016020861015611f865750805b601f850160051c820191505b81811015611fa557828155600101611f92565b505050505050565b81516001600160401b03811115611fc657611fc6611cab565b611fda81611fd48454611df6565b84611f60565b602080601f83116001811461200d575f8415611ff65750858301515b5f19600386901b1c1916600185901b178555611fa5565b5f85815260208120601f198616915b8281101561203b5788860151825594840194600190910190840161201c565b508582101561205857878501515f19600388901b60f8161c191681555b5050505050600190811b0190555056feab40a374bc51de372200a8bc981af8c9ecdc08dfdaef0bb6e09f88f3c616ef3dddf252ad1be2c89b69c2b068fc378daa952ba7f163c4a11628f55a4df523b3efa26469706673582212208441922a7d40986bfa010f74493b28757b9b8d33558932792845d9b6b3c9ef7264736f6c63430008150033",
  "immutableReferences": {},
  "source": "// SPDX-License-Identifier: MIT\n\npragma solidity ^0.8.0;\n\n\nimport \"../library/TokenLibrary.sol\";\nimport \"../interfaces/IProxySecurityToken.sol\";\nimport \"../interfaces/ISecurityTokenImmutable.sol\";\nimport \"../roles/ReaderRole.sol\";\nimport \"@openzeppelin/contracts/access/Ownable.sol\";\nimport \"@openzeppelin/contracts/token/ERC20/ERC20.sol\";\nimport \"@openzeppelin/contracts/utils/math/SafeMath.sol\";\n\ncontract SecurityTokenImmutable is ERC20, ReaderRole, ISecurityTokenImmutable {\n    using SafeMath for uint;\n\n    address internal addressProxy;\n    address internal OWNER;\n    uint32 internal _transfersCount;\n    mapping(uint256 => TokenLibrary.Transfer) internal _transfers;\n    uint256 internal paused;\n    string internal constant TOKEN_VERSION = \"0.0.1\";\n    TokenLibrary.Rules internal rules;\n\n    event TransferOwnership(address indexed oldAccount, address indexed newAccount);\n    event Paused(address indexed sender, uint256 indexed paused);\n    event Transfer(string eventType, address indexed from, address indexed to, uint256 value);\n    event HandlePaiement(address operator, address sender, uint256 value);\n    event InjectCapital(address operator, uint256 value);\n\n    function _now() public view returns (uint256) {\n        return block.timestamp;\n    }\n\n    /**\n     */\n    constructor(\n        string memory _name,\n        string memory _code,\n        TokenLibrary.Rules memory _rules\n    ) ERC20(_name, _code) {\n        OWNER = _msgSender();\n        rules = _rules;\n    }\n\n    /// @dev Modifier to make a function callable only when the contract is not paused.\n    modifier whenNotPaused() {\n        require(_now() > paused, \"Pausable: paused\");\n        _;\n    }\n\n    /// @dev Modifier to make a function callable only when the contract is paused.\n    modifier whenPaused() {\n        require(_now() <= paused, \"Pausable: not paused\");\n        _;\n    }\n\n    /// @dev Modifier to make a function callable only when the contract is paused.\n    modifier onlyProxy() {\n        require(_msgSender() == addressProxy, \"Not called by proxy contract\");\n        _;\n    }\n\n    /**\n     * @notice Set address of proxy contract to accept only proxy requests\n     * @param _addressProxy {address} address of contract proxy\n     */\n    function setAddressProxy(address _addressProxy) external {\n        require(IProxySecurityToken(_addressProxy).owner() == owner(),\"Invalid contract & Owner\");\n        addressProxy = _addressProxy;\n    }\n\n    /**\n     * @notice Get address of proxy contract\n     * @return addressProxy {address} address of contract proxy\n     */\n    function getAddressProxy() external view returns(address){\n        return addressProxy;\n    }\n\n    /**\n     * @notice Set fundraising parameters to mint tokens in conditions\n     * @param startFundraising {uint256} start timestamp of the fundraising\n     * @param endFundraising {uint256} end timestamp of the fundraising\n     * @param maxSupply {uint256} max supply tokens of contract\n     */\n    function setFundraising(\n        uint256 startFundraising,\n        uint256 endFundraising,\n        uint256 maxSupply\n    ) external onlyOwner {\n        rules.startFundraising = startFundraising;\n        rules.endFundraising = endFundraising;\n        rules.maxSupply = maxSupply;\n    }\n\n    /**\n     * @notice Set parameters rules of contract only if at start rules is setted modifiable\n     * @param _rules {TokenLibrary.Rules} struct of rules\n     */\n    function setRules(TokenLibrary.Rules memory _rules) external onlyOwner {\n        require(rules.rulesModifiable == true, \"Rules is not modifiable\");\n        rules = _rules;\n    }\n\n    /**\n     * @notice Get parameters rules of contract\n     * @return rules {TokenLibrary.Rules} struct of rules setted on smart contract\n     */\n    function getRules() external view returns(TokenLibrary.Rules memory) {\n        require(_msgSender() == addressProxy || _msgSender() == OWNER, \"Caller is not owner or proxy\");\n        return rules;\n    }\n\n    /**\n     * @notice Returns the version of the token contract\n     * @return TOKEN_VERSION {string} version of the smart contract\n     */\n    function version() external pure returns (string memory) {\n        return TOKEN_VERSION;\n    }\n\n    /**\n     * @notice Returns the address wallet of the smart contract owner.\n     * @return owner {address} wallet addres from owner\n     */\n    function owner() public view override(Ownable, ISecurityTokenImmutable) returns (address) {\n        return OWNER;\n    }\n\n    /**\n     * @notice Get movements of the assets\n     * @param skip {uint32} skip a number of articles to retrieve\n     * @param limit {uint32} limit the number of articles to retrieve\n     * @return result {TokenLibrary.Transfer[]} array of register transfers movements\n     */\n    function transfers(uint32 skip, uint32 limit) public view onlyReader() returns (TokenLibrary.Transfer[] memory) {\n        TokenLibrary.Transfer[] memory result = new TokenLibrary.Transfer[](_transfersCount - skip - limit);\n        for (uint32 i = 0+skip; i < (limit == 0 ? _transfersCount : limit); i++) {\n            result[i] = _transfers[i];\n        }\n        return result;\n    }\n\n    /**\n     * @notice Transfer ownership of the smart contract\n     * @param account {address} address of the new owner\n     */\n    function transferOwnership(address account) public virtual override(Ownable, ISecurityTokenImmutable) onlyOwner {\n        emit TransferOwnership(OWNER, account);\n        OWNER = account;\n    }\n\n    /**\n     * @notice Mint and send `amount` tokens to `to`\n     *\n     * Returns a boolean value indicating whether the operation succeeded.\n     *\n     * Emits a {Transfer} event.\n     * @param to {address} wallet to send the token\n     * @param amount {uint256} amount to mint\n     * @return result {boolean} success or failure\n     */\n    function mint(address to, uint256 amount) external payable onlyProxy returns (bool) {\n        _mint(to, amount);\n        return true;\n    }\n\n    /**\n     * @notice Remove `amount` tokens from `account`\n     *\n     * Returns a boolean value indicating whether the operation succeeded.\n     *\n     * Emits a {Transfer} event.\n     * @param account {address} wallet to burn the token\n     * @param amount {uint256} amount to burn\n     */\n    function burn(address account, uint256 amount, uint256 refoundable)\n        external onlyProxy\n        returns (bool)\n    {\n        _burn(account, amount);\n\n        (bool sent, ) = account.call{value: refoundable}(\"\");\n        require(sent, \"Failed to send Ether\");\n        return true;\n    }\n\n    /**\n     * @dev Transfer and send `amount` tokens from `_msgSender()` to `to`\n     *\n     * Returns a boolean value indicating whether the operation succeeded.\n     *\n     * Emits a {Transfer} event.\n     * @param to {address} wallet to transfer the token\n     * @param amount {uint256[]} amount to transfer\n     */\n    function transfer(address to, uint256 amount) public virtual override(ERC20, ISecurityTokenImmutable) returns (bool) {\n        _transfer(_msgSender(), to, amount);\n        return true;\n    }\n\n    /**\n     * @dev Transfer and send `amount` tokens from `from` to `to`\n     *\n     * Returns a boolean value indicating whether the operation succeeded.\n     *\n     * Emits a {Transfer} event.\n     * @param from {address} wallet from transfer the token\n     * @param to {address} wallet to transfer the token\n     * @param amount {uint256[]} amount to transfer\n     */\n    function transferFrom(address from, address to, uint256 amount) public virtual override(ERC20, ISecurityTokenImmutable) onlyProxy returns (bool) {\n        _transfer(from, to, amount);\n        return true;\n    }\n\n    /**\n     * @notice Moves `amount` of tokens from `from` to `to`.\n     * @param from {address} the origin of the token transfer\n     * @param to {address} the recipient of the token transfer\n     * @param amount {uint256} the number of tokens transferred\n     */\n    function _transfer(\n        address from,\n        address to,\n        uint256 amount\n    ) internal override virtual {\n        super._transfer(from, to, amount);\n        _afterTokenTransfer(\"transfer\", from, to, amount);\n    }\n\n    /**\n     * @notice Creates `amount` tokens and assigns them to `account`, increasing\n     * the total supply.\n     * @param account {address} the recipient of the token transfer\n     * @param amount {uint256} the number of tokens destroyed\n     */\n    function _mint(address account, uint256 amount) internal virtual override {\n        super._mint(account, amount);\n        _afterTokenTransfer(\"mint\", address(0), account, amount);\n    }\n\n    /**\n     * @notice Destroys `amount` tokens from `account`, reducing the\n     * total supply.\n     * @param account {address} the origin of the token destroyed\n     * @param amount {uint256} the number of tokens destroyed\n     */\n    function _burn(address account, uint256 amount) internal virtual override {\n        super._burn(account, amount);\n        _afterTokenTransfer(\"burn\", account, address(0), amount);\n    }\n\n    /**\n     * @dev Returns the amount of tokens in existence.\n     */\n    function totalSupply() public view virtual override(ERC20, ISecurityTokenImmutable) returns (uint256) {\n        return super.totalSupply();\n    }\n\n    /**\n     * @dev Returns the amount of tokens in existence.\n     */\n    function balanceOf(address account) public view virtual override(ERC20, ISecurityTokenImmutable) returns (uint256) {\n        return super.balanceOf(account);\n    }\n\n    /**\n     *  @notice Pause transfer tokens of smart contract\n     *  @param _paused {uint256} represents date when transfer restart\n     */\n    function pause(uint256 _paused) external whenNotPaused {\n        require(rules.pausable == true, \"Pause is not allowed\");\n        paused = _paused;\n        emit Paused(_msgSender(), paused);\n    }\n\n    /**\n     *  @notice Unpause transfer tokens of smart contract\n     */\n    function unpause() external whenPaused {\n        require(rules.pausable == true, \"Pause is not allowed\");\n        paused = 0;\n        emit Paused(_msgSender(), paused);\n    }\n\n    /**\n     *  @notice Check if contract is paused or not\n     */\n    function isPaused() external view returns(uint256){\n        return paused;\n    }\n\n    /**\n     * @notice Withdraw tokens amount of contract balance\n     * @param amount {uint256} the number of tokens transferred\n     * @param receiver {address} the recipient of the token transfer\n     */\n    function withdraw(uint256 amount, address receiver) external onlyProxy returns(bool) {\n        (bool success, ) = payable(receiver).call{ value: amount}(\"\");\n        require(success, \"Withdraw not successful\");\n        return success;\n    }\n\n    /**\n     * @notice handle payment receive by everyone, everywhere, all at once\n     * @param senderAddress {address} address of sender\n     */\n    function handlePayment(address senderAddress) payable public returns(bool) {\n        emit HandlePaiement(_msgSender(), senderAddress, msg.value);\n        return true;\n    }\n\n    /**\n     * @notice Inject wei into smart contract\n     */\n    function injectCapital() external payable onlyOwner returns(bool) {\n        ///maybe todo reduce lastWithdraw ??\n        emit InjectCapital(_msgSender(), msg.value);\n        return true;\n    }\n\n    /**\n     * @notice Hook that is called after any transfer of tokens. This includes\n     * minting and burning.\n     * @param transferType {string} the type of transfer\n     * @param from {address} the origin of the token transfer\n     * @param to {address} the recipient of the token transfer\n     * @param amount {uint256} the number of tokens transferred\n     */\n    function _afterTokenTransfer(\n        string memory transferType,\n        address from,\n        address to,\n        uint256 amount\n    ) internal virtual whenNotPaused {\n        emit Transfer(transferType, from, to, amount);\n        _transfers[_transfersCount] = TokenLibrary.Transfer(\n            transferType,\n            from,\n            to,\n            amount,\n            _now()\n        );\n        _transfersCount++;\n    }\n}",
  "sourcePath": "/home/solid-solution/Documents/block-us/block-us-contract/contracts/immutable/SecurityTokenImmutable.sol",
  "compiler": {
    "name": "solc",
    "version": "0.8.21+commit.d9974bed.Emscripten.clang"
  },
  "schemaVersion": "3.4.10",
  "updatedAt": "2023-09-19T15:20:09.542Z",
  "devdoc": {
    "events": {
      "Approval(address,address,uint256)": {
        "details": "Emitted when the allowance of a `spender` for an `owner` is set by a call to {approve}. `value` is the new allowance."
      },
      "Transfer(address,address,uint256)": {
        "details": "Emitted when `value` tokens are moved from one account (`from`) to another (`to`). Note that `value` may be zero."
      }
    },
    "kind": "dev",
    "methods": {
      "allowance(address,address)": {
        "details": "See {IERC20-allowance}."
      },
      "approve(address,uint256)": {
        "details": "See {IERC20-approve}. NOTE: If `amount` is the maximum `uint256`, the allowance is not updated on `transferFrom`. This is semantically equivalent to an infinite approval. Requirements: - `spender` cannot be the zero address."
      },
      "balanceOf(address)": {
        "details": "Returns the amount of tokens in existence."
      },
      "burn(address,uint256,uint256)": {
        "params": {
          "account": "{address} wallet to burn the token",
          "amount": "{uint256} amount to burn"
        }
      },
      "decimals()": {
        "details": "Returns the number of decimals used to get its user representation. For example, if `decimals` equals `2`, a balance of `505` tokens should be displayed to a user as `5.05` (`505 / 10 ** 2`). Tokens usually opt for a value of 18, imitating the relationship between Ether and Wei. This is the value {ERC20} uses, unless this function is overridden; NOTE: This information is only used for _display_ purposes: it in no way affects any of the arithmetic of the contract, including {IERC20-balanceOf} and {IERC20-transfer}."
      },
      "decreaseAllowance(address,uint256)": {
        "details": "Atomically decreases the allowance granted to `spender` by the caller. This is an alternative to {approve} that can be used as a mitigation for problems described in {IERC20-approve}. Emits an {Approval} event indicating the updated allowance. Requirements: - `spender` cannot be the zero address. - `spender` must have allowance for the caller of at least `subtractedValue`."
      },
      "getAddressProxy()": {
        "returns": {
          "_0": "addressProxy {address} address of contract proxy"
        }
      },
      "getRules()": {
        "returns": {
          "_0": "rules {TokenLibrary.Rules} struct of rules setted on smart contract"
        }
      },
      "handlePayment(address)": {
        "params": {
          "senderAddress": "{address} address of sender"
        }
      },
      "increaseAllowance(address,uint256)": {
        "details": "Atomically increases the allowance granted to `spender` by the caller. This is an alternative to {approve} that can be used as a mitigation for problems described in {IERC20-approve}. Emits an {Approval} event indicating the updated allowance. Requirements: - `spender` cannot be the zero address."
      },
      "mint(address,uint256)": {
        "params": {
          "amount": "{uint256} amount to mint",
          "to": "{address} wallet to send the token"
        },
        "returns": {
          "_0": "result {boolean} success or failure"
        }
      },
      "name()": {
        "details": "Returns the name of the token."
      },
      "owner()": {
        "returns": {
          "_0": "owner {address} wallet addres from owner"
        }
      },
      "pause(uint256)": {
        "params": {
          "_paused": "{uint256} represents date when transfer restart"
        }
      },
      "renounceOwnership()": {
        "details": "Leaves the contract without owner. It will not be possible to call `onlyOwner` functions anymore. Can only be called by the current owner. NOTE: Renouncing ownership will leave the contract without an owner, thereby removing any functionality that is only available to the owner."
      },
      "setAddressProxy(address)": {
        "params": {
          "_addressProxy": "{address} address of contract proxy"
        }
      },
      "setFundraising(uint256,uint256,uint256)": {
        "params": {
          "endFundraising": "{uint256} end timestamp of the fundraising",
          "maxSupply": "{uint256} max supply tokens of contract",
          "startFundraising": "{uint256} start timestamp of the fundraising"
        }
      },
      "setRules((bool,bool,bool,uint256,uint256,uint256,uint256))": {
        "params": {
          "_rules": "{TokenLibrary.Rules} struct of rules"
        }
      },
      "symbol()": {
        "details": "Returns the symbol of the token, usually a shorter version of the name."
      },
      "totalSupply()": {
        "details": "Returns the amount of tokens in existence."
      },
      "transfer(address,uint256)": {
        "details": "Transfer and send `amount` tokens from `_msgSender()` to `to` Returns a boolean value indicating whether the operation succeeded. Emits a {Transfer} event.",
        "params": {
          "amount": "{uint256[]} amount to transfer",
          "to": "{address} wallet to transfer the token"
        }
      },
      "transferFrom(address,address,uint256)": {
        "details": "Transfer and send `amount` tokens from `from` to `to` Returns a boolean value indicating whether the operation succeeded. Emits a {Transfer} event.",
        "params": {
          "amount": "{uint256[]} amount to transfer",
          "from": "{address} wallet from transfer the token",
          "to": "{address} wallet to transfer the token"
        }
      },
      "transferOwnership(address)": {
        "params": {
          "account": "{address} address of the new owner"
        }
      },
      "transfers(uint32,uint32)": {
        "params": {
          "limit": "{uint32} limit the number of articles to retrieve",
          "skip": "{uint32} skip a number of articles to retrieve"
        },
        "returns": {
          "_0": "result {TokenLibrary.Transfer[]} array of register transfers movements"
        }
      },
      "version()": {
        "returns": {
          "_0": "TOKEN_VERSION {string} version of the smart contract"
        }
      },
      "withdraw(uint256,address)": {
        "params": {
          "amount": "{uint256} the number of tokens transferred",
          "receiver": "{address} the recipient of the token transfer"
        }
      }
    },
    "version": 1
  },
  "userdoc": {
    "kind": "user",
    "methods": {
      "burn(address,uint256,uint256)": {
        "notice": "Remove `amount` tokens from `account` Returns a boolean value indicating whether the operation succeeded. Emits a {Transfer} event."
      },
      "getAddressProxy()": {
        "notice": "Get address of proxy contract"
      },
      "getRules()": {
        "notice": "Get parameters rules of contract"
      },
      "handlePayment(address)": {
        "notice": "handle payment receive by everyone, everywhere, all at once"
      },
      "injectCapital()": {
        "notice": "Inject wei into smart contract"
      },
      "isPaused()": {
        "notice": "Check if contract is paused or not"
      },
      "mint(address,uint256)": {
        "notice": "Mint and send `amount` tokens to `to` Returns a boolean value indicating whether the operation succeeded. Emits a {Transfer} event."
      },
      "owner()": {
        "notice": "Returns the address wallet of the smart contract owner."
      },
      "pause(uint256)": {
        "notice": "Pause transfer tokens of smart contract"
      },
      "setAddressProxy(address)": {
        "notice": "Set address of proxy contract to accept only proxy requests"
      },
      "setFundraising(uint256,uint256,uint256)": {
        "notice": "Set fundraising parameters to mint tokens in conditions"
      },
      "setRules((bool,bool,bool,uint256,uint256,uint256,uint256))": {
        "notice": "Set parameters rules of contract only if at start rules is setted modifiable"
      },
      "transferOwnership(address)": {
        "notice": "Transfer ownership of the smart contract"
      },
      "transfers(uint32,uint32)": {
        "notice": "Get movements of the assets"
      },
      "unpause()": {
        "notice": "Unpause transfer tokens of smart contract"
      },
      "version()": {
        "notice": "Returns the version of the token contract"
      },
      "withdraw(uint256,address)": {
        "notice": "Withdraw tokens amount of contract balance"
      }
    },
    "version": 1
  }
}